:060000000A128A110C280F
:10000800FE00030EF0000A08F1000A168A154C2AB1
:100018000A128A110F2883010A128A115C2E83168C
:100028000313BE006B30B100432E2530450603197B
:100038001E281F2829283E088400450883178000A9
:100048000130A8002808BE07432EB201B30183126D
:1000580003136A0884000A168A110A200A128A11F0
:100068002E3A031D382839288B2883160313331793
:100078000130A800280883120313EA078316031324
:10008800BF01C00179280A30F2000030F30083165E
:1000980003134008F5003F08F4000A128A11DA2712
:1000A8000A128A11730883160313C0007208BF006E
:1000B800831203136A0884000A168A110A200A1296
:1000C8008A11D03E83160313A800FF3003180030AE
:1000D800A9002808BF070318C00A2908C00701306B
:1000E800A800280883120313EA0783126A08840009
:1000F8000A168A110A200A128A110A168A158922F2
:100108000A128A11031889288A28472893288316EF
:100118000313BF01C001331693283315B1280130EA
:1001280083120313EA07FF306A0784000A168A114C
:100138000A200A128A1183160313C500A800A90110
:100148002908003A0319A928432E2808003A031958
:10015800572E663A03199128432E00303205A8001D
:1001680007303305A900280829040319BC28BD282D
:10017800002E331EC028C128C5280630BF00003015
:10018800C0003108840083130008C100840A0008F5
:10019800C200840A0008C300840A0008C4000430AE
:1001A800A8002808B1074408F5004308F4004208ED
:1001B800F3004108F2000030F9000030F800003088
:1001C800F7000030F6000A168A155C270A128A1111
:1001D8000318EF28F0280D29831603134408F500A7
:1001E8004308F4004208F3004108F2000A128A1595
:1001F80000200A128A11750883160313C4007408B4
:10020800C3007308C2007208C1000330B204003092
:10021800B30483160313B801B9014408F500430871
:10022800F4004208F3004108F2000030F900003001
:10023800F8000030F7000030F6000A168A15692425
:100248000A128A11031829292A292A2A031083162F
:100258000313430D440D823EB800FF3003180030ED
:10026800B900FF30B8070318B90AFF30B9070330DF
:10027800F2000030F3003908F5003808F4000A12DB
:100288008A11DA270A128A11730883160313B90030
:100298007208B8000A3083120313A0000030A100CE
:1002A80083160313390883120313A3008316031359
:1002B800380883120313A2000A168A157B260A122D
:1002C8008A1183120313210883160313B9008312BA
:1002D8000313200883160313B800B91F742975295E
:1002E8007B29FF30B8070318B90AFF30B90738036C
:1002F800FF3A0A128A159D240A128A1183120313DF
:10030800450883160313BD0083120313440883169C
:100318000313BC0083120313430883160313BB00A3
:1003280083120313420883160313BA004408831286
:100338000313AB0083160313430883120313AA00A5
:1003480083160313420883120313A90083160313A9
:10035800410883120313A800831603133D08831270
:100368000313AF00831603133C0883120313AE0074
:10037800831603133B0883120313AD00831603137C
:100388003A0883120313AC000A128A1558210A127C
:100398008A11831203132B0883160313BD008312DB
:1003A80003132A0883160313BC00831203132908B6
:1003B80083160313BB008312031328088316031341
:1003C800BA003D08F5003C08F4003B08F3003A0881
:1003D800F2003F30F9008030F8000030F7000030BC
:1003E800F6000A168A155C270A128A110318FD29D5
:1003F800FE29072AFF3083160313B8070318B90A22
:10040800FF30B9072A2A831603133D08F5003C0874
:10041800F4003B08F3003A08F2004130F9002030BC
:10042800F8000030F7000030F6000A168A155C273D
:100438000A128A11031C212A222A2A2A0130831629
:100448000313B8070318B90A0030B9078316031352
:100458004008803AFF0080307F02031D352A0D30A6
:100468003F020318382A392A802A831603133F08C3
:100478000A168A119D230A128A118312031345084A
:10048800D9004408D8004308D7004208D60083168C
:100498000313440883120313DD0083160313430870
:1004A80083120313DC008316031342088312031319
:1004B800DB0083160313410883120313DA000A16BC
:1004C8008A11A8250A128A11831203135908831660
:1004D8000313C40083120313580883160313C300BD
:1004E80083120313570883160313C20083120313DE
:1004F800560883160313C100831603133908803A7C
:10050800FF0080307F02031D8B2A0A30380203184F
:100518008E2A8F2AE02A831603134408F50043081D
:10052800F4004208F3004108F2000030F9000030FE
:10053800F8000030F7000030F6000A168A15692422
:100548000A128A110318A92AAA2A522B83160313FE
:10055800440883120313D800831603134308831235
:100568000313D70083160313420883120313D6001C
:1005780083160313410883120313D5000A168A153C
:10058800E4260A128A1183120313580857045604E2
:100598005504031DD02AD12A522B83160313390878
:1005A800803AFF0080307F02031DDC2A02303802C7
:1005B800031CDF2AE02A522B831603133D08F5009B
:1005C8003C08F4003B08F3003A08F2004030F90018
:1005D8008930F8007030F7005F30F6000A168A1587
:1005E8005C270A128A110318FA2AFB2A042BF7300F
:1005F80083160313B8070318B90AFF30B9070C2B81
:10060800F83083160313B8070318B90AFF30B9077F
:1006180038080A128A159D240A128A1183120313B4
:10062800450883160313BD00831203134408831679
:100638000313BC0083120313430883160313BB0080
:1006480083120313420883160313BA004408F50003
:100658004308F4004208F3004108F2003D08F9009D
:100668003C08F8003B08F7003A08F6000A128A1519
:10067800A0200A128A11750883160313B70074089C
:10068800B6007308B5007208B4000030C40000302A
:10069800C3000030C2000030C100B82B831603131A
:1006A800440883120313D8008316031343088312E4
:1006B8000313D70083160313420883120313D600CB
:1006C80083160313410883120313D5000A168A15EB
:1006D800E4260A128A118312031358088316031397
:1006E800B70083120313570883160313B600831247
:1006F8000313560883160313B50083120313550812
:1007080083160313B4003708F5003608F4003508DB
:10071800F3003408F20000300A128A1120270A1266
:100728008A11750883160313A3007408A2007308BE
:10073800A1007208A0004408A7004308A6004208C8
:10074800A5004108A4000A168A15B9240A128A11BC
:10075800831603132308C4002208C3002108C2001B
:100768002008C100B801B901C501C50A4508A8009B
:1007780001300310A80DFF3E031DBD2B0310280DEB
:10078800693E84000A168A110A200A128A11A900F1
:100798000A168A110A200A128A11AA000A168A1150
:1007A8000A200A128A11AB000A168A110A200A12B4
:1007B8008A11AC002C083702031DEC2B2B083602DB
:1007C800031DEC2B2A083502031DEC2B29083402E3
:1007D8000318EF2BF02BF12BFB2B0130A800280876
:1007E800C5070A304506031DFA2BFB2BBA2B03302D
:1007F8003205A80000303305A90028082904031988
:10080800062C072C752C3E0884002D308317800099
:100818000130A8002808BE07752C4508A80001303B
:100828000310A80DFF3E031D142C0310280D693E6C
:1008380084000A168A110A200A128A11F2000A167E
:100848008A110A200A128A11F3000A168A110A204C
:100858000A128A11F4000A168A110A200A128A1149
:10086800F5003708F9003608F8003508F7003408AD
:10087800F6000A168A1513260A128A1175088316B5
:100888000313BD007408BC007308BB007208BA00EB
:100898000030F5000030F4000030F3000A30F200B8
:1008A8003D08F9003C08F8003B08F7003A08F60054
:1008B8000A168A1509250A128A1175088316031360
:1008C800BD007408BC007308BB007208BA003E087B
:1008D80084003A08303E831780000130A8002808B9
:1008E800BE070130C502450A031D7B2C7C2C112C48
:1008F8008E2C831603133E08840030308317800043
:100908000130A8002808BE07FF30B8070318B90A45
:10091800FF30B9073908803AFF0080307F02031D95
:10092800972C0130380203189A2C9B2C7D2C8316A7
:1009380003134008803AFF0080307F02031DA62C75
:1009480009303F02031CA92CAA2CAF2C08308316AF
:100958000313C500B32C831603133F08C5004508CD
:10096800A800A9012808BF022908031CC003C00267
:1009780045080319C02CC12CCA2C3E0884002E300F
:10098800831780000130A8002808BE0745080A120E
:100998008A159D240A128A118312031345088316A7
:1009A8000313B00083120313440883160313AF0024
:1009B80083120313430883160313AE008312031331
:1009C800420883160313AD00300883120313AF00E7
:1009D800831603132F0883120313AE008316031321
:1009E8002E0883120313AD00831603132D088312F8
:1009F8000313AC0083160313440883120313AB00DC
:100A080083160313430883120313AA0083160313E0
:100A1800420883120313A9008316031341088312A3
:100A28000313A8000A128A1558210A128A11831280
:100A380003132B08D8002A08D7002908D60028084D
:100A4800D5000A168A15E4260A128A11831203139E
:100A5800580883160313B700831203135708831625
:100A68000313B60083120313560883160313B50045
:100A780083120313550883160313B400E22D4508A7
:100A8800A80001300310A80DFF3E031D462D0310DA
:100A9800280D693E84000A168A110A200A128A1152
:100AA800F2000A168A110A200A128A11F3000A169D
:100AB8008A110A200A128A11F4000A168A110A20D9
:100AC8000A128A11F5003708F9003608F8003508C7
:100AD800F7003408F6000A168A1513260A128A1136
:100AE800750883160313BD007408BC007308BB00A7
:100AF8007208BA000030F5000030F4000030F3004E
:100B08000A30F2003D08F9003C08F8003B08F700FD
:100B18003A08F6000A168A1509250A128A11750874
:100B280083160313BD007408BC007308BB00720869
:100B3800BA003E0884003A08303E8317800001302E
:100B4800A8002808BE074508A80001300310A80D12
:100B5800FF3E031DAA2D0310280D693E84000A16C6
:100B68008A110A200A128A11F2000A168A110A202A
:100B78000A128A11F3000A168A110A200A128A1127
:100B8800F4000A168A110A200A128A11F500370899
:100B9800F9003608F8003508F7003408F6000A1698
:100BA8008A1509250A128A11750883160313B700D6
:100BB8007408B6007308B5007208B4000130C502A5
:100BC800450A031DE82DE92D432DF92D3E08840023
:100BD8003030831780000130A8002808BE07FF3096
:100BE800BF070318C00AFF30C0073F084004031DB1
:100BF800FE2DFF2DEA2D432E3F084004031D052E30
:100C0800062E142E3708360435043404031D0D2E21
:100C18000E2E142E0130BF070318C00A0030C0077B
:100C28004008803A803C031D1B2E3F0845020318EC
:100C38001E2E1F2E202E2F2E831603134008803AB7
:100C4800A80080302802031D2B2E45083F020318F8
:100C58002E2E2F2E2F2E0330831603133205A800B5
:100C680000303305A9002808290403193C2E3D2E1D
:100C7800432E3E0884002D3083178000242801303D
:100C880083120313EA07FF306A0784000A168A11E1
:100C98000A200A128A1183160313C5004508031D8A
:100CA800562E572E19283E08840083178001080005
:100CB8008312031385018316031387018312031319
:100CC800870183160317C60100300A168A15FE220B
:100CD8000A128A110030F200F3000A128A150B205A
:100CE8000A128A118316031388010A168A15B62573
:100CF8000A128A110A168A155C220A128A11F6014A
:100D0800F60A01300A168A1597230A128A119130B9
:100D1800F7008030F8000A168A15DD230A128A11B6
:100D28000530F60002300A168A1597230A128A112E
:100D38009F30F7008030F8000A168A15DD230A1262
:100D48008A11033083160313C7009730C600C60BF9
:100D5800AB2EC70BAB2E8316031746080A168A1547
:100D680077220A128A118316031746080A168A156B
:100D780077220A128A118312031387008316031736
:100D880046080A168A11B2200A128A11831203131E
:100D98005F0883160317C500831203135E088316C2
:100DA8000317C400831203135D0883160317C300D7
:100DB800831203135C0883160317C2009A30831248
:100DC8000313EA0083160317450883120313EE0082
:100DD80083160317440883120313ED0083160317C1
:100DE800430883120313EC00831603174208831287
:100DF8000313EB0090300A128A1113200A128A1189
:100E0800F601F60A02300A168A1597230A128A1181
:100E1800053083160313C600C60B102F132F90300E
:100E2800F7000130F8000A168A15DD230A128A1124
:100E3800A52E0A128A110C2883120313A000200879
:100E48000319272F282F3C2FF51F2B2F2C2F3C2F32
:100E58007209A2007309A3007409A4007509A5000A
:100E6800A20A0319A30A0319A40A0319A50A442FFD
:100E78007508A5007408A4007308A3007208A200EE
:100E88007508740473047204031D4B2F4C2F552FDF
:100E98000030F5000030F4000030F3000030F200BC
:100EA800D92F9630A100652F0130F6007608A107EA
:100EB80001300310A50CA40CA30CA20CFF3E031DCB
:100EC8005D2FFE302505031D6A2F6B2F582F872FA6
:100ED8000130F6007608A1070130A2070030031898
:100EE8000130A307003003180130A40700300318AD
:100EF8000130A50701300310A50CA40CA30CA20C0B
:100F0800FF3E031D7F2FFF302505031D8C2F8D2FDE
:100F18006C2F992F0130A1020130F6000310A20DA9
:100F2800A30DA40DA50DF60B922FA41B9C2F9D2F8E
:100F3800A32F023021020318A22FA32F8E2F2118CE
:100F4800A62FA72FAF2FFF30A205FF30A3057F30B4
:100F5800A405FF30A5050310A10C2108F600F70130
:100F6800F801F90118300310F60DF70DF80DF90D19
:100F7800FF3E031DB72F7608A2047708A30478085C
:100F8800A4047908A50420080319CB2FCC2FD12F4E
:100F9800F51FCF2FD02FD12FA5172508F50024082E
:100FA800F4002308F3002208F2000800F601F70114
:100FB800721CDF2FE02FE62F7408F6070318F70AD4
:100FC8007508F70701300310F40DF50DFF3E031DFA
:100FD800E72F01300310F30CF20CFF3E031DEE2F38
:100FE80072087304031DF92FFA2FDC2F7708F3001A
:060FF8007608F20008007B
:1010000075087404730472040319072808280A2851
:101010008030F50608006E2883160317081483161F
:10102000031305149F2883160317881483160313CC
:1010300085149F28831603170815831603130515B7
:101040009F288316031788158316031385159F2879
:101050008316031708168316031385169F28831615
:10106000031788168316031309149F288316031782
:1010700008178316031389149F28831603178817EC
:101080008316031309159F28831603170914831663
:10109000031306159F288316031789148316031359
:1010A00086159F28831603170915831603138614C4
:1010B0009F288316031789158316031306169F2886
:1010C0008316031709168316031306149F28831625
:1010D000031789168316031386169F287308003A90
:1010E000031973289F287208003A03190C28013A43
:1010F00003191328033A03191A28013A031921285E
:10110000073A03192828013A03192F28033A03192B
:101110003628013A03193D280F3A03194428013AA9
:1011200003194B28033A03195228013A0319592885
:10113000073A03196028013A031967289F28080015
:101140000310740D750D83120313A5002508031DEC
:10115000AA28AB28B4280030F5000030F400003095
:10116000F3000030F20057290310780D790DA40028
:101170002408031DBC28BD28BE28AB28F417FF3067
:10118000F205FF30F305FF30F4050030F505F817E0
:10119000FF30F605FF30F705FF30F8050030F905A0
:1011A0000030A3000030A2000030A1000030A000F9
:1011B0007F30A502A0302407FA007A08A50220306B
:1011C000A4000130FA000310A00DA10DA20DA30D83
:1011D000FA0BE32879087502031DF82878087402D1
:1011E000031DF82877087302031DF8287608720299
:1011F000031CFB28FC280B297608F2027708031C45
:10120000770FF3027808031C780FF4027908031CA7
:10121000790FF50220140130FA000310F20DF30DDE
:10122000F40DF50DFA0B0D290130A402031D192947
:101230001A29E128A51F1D291E2938292508803AC9
:101240009F3E0318242925292629AB2801300310A5
:10125000A30CA20CA10CA00CFF3E031D27290130FA
:10126000FA007A08A507031D3629372926294F29B0
:1012700020302502031C3D293E294A29AB28013094
:10128000FA000310A00DA10DA20DA30DFA0B412928
:101290000130A5022508031D4E294F293F292308A7
:1012A000F5002208F4002108F3002008F2000800ED
:1012B000831203132B088039B5002B08B0003007C8
:1012C000BB00AA1F6429652966293B143B08031942
:1012D0006A296B297A293B0A031D6F29702978290D
:1012E0000030AB000030AA000030A9000030A80098
:1012F000AA1782290030AB000030AA000030A900F4
:101300000030A8002F088039B0003008B5062F083B
:10131000B0003007BA00AE1F8E298F2990293A14E9
:101320003A08031994299529A4293A0A031D9929F1
:101330009A29A2290030AF000030AE000030AD0085
:101340000030AC00AE17AC290030AF000030AE006A
:101350000030AD000030AC003A080319B029B129C3
:10136000B6293B08031DB529B629BF290030AB00BB
:101370000030AA000030A9000030A8009C2C2808EA
:10138000F2002E080A168A15D7220A128A15730847
:1013900083120313C1007208C0004008B000B101FD
:1013A000B201B3013308B9003208B8003108B70000
:1013B0003008B6004108B000B101B201B3013308F2
:1013C000BF003208BE003108BD003008BC0029084B
:1013D000F2002D080A168A15D7220A128A157308F8
:1013E00083120313C1007208C0004008B000B101AD
:1013F000B201B3013008B607310803110318013EEA
:101400000319032AB707320803110318013E031911
:101410000A2AB807330803110318013E0319112AD9
:10142000B9074108B000B101B201B3013008BC07EF
:10143000310803110318013E03191F2ABD073208A2
:1014400003110318013E0319262ABE0733080311AE
:101450000318013E03192D2ABF072A08F2002C08A1
:101460000A168A15D7220A128A15730883120313E3
:10147000C1007208C0004008B000B101B201B30160
:101480003008B607310803110318013E0319492A31
:10149000B707320803110318013E0319502AB80791
:1014A000330803110318013E0319572AB9074108ED
:1014B000B000B101B201B3013008BC07310803111B
:1014C0000318013E0319652ABD07320803110318EA
:1014D000013E03196C2ABE07330803110318013EAD
:1014E0000319732ABF070830B0000310B60DB70DFB
:1014F000B80DB90DB00B752A2908F2002C080A1690
:101500008A15D7220A128A15730883120313C100A1
:101510007208C0004008B0004108B100B201B30138
:101520003008B607310803110318013E0319992A40
:10153000B707320803110318013E0319A02AB807A0
:10154000330803110318013E0319A72AB907280815
:10155000F2002D080A168A15D7220A128A15730876
:1015600083120313C1007208C0004008B000410894
:10157000B100B201B3013008B607310803110318F6
:10158000013E0319C42AB707320803110318013EAC
:101590000319CB2AB807330803110318013E0319B6
:1015A000D22AB9070830B0000310B60DB70DB80D38
:1015B000B90DB00BD42A2808F2002C080A168A1597
:1015C000D7220A128A15730883120313C100720806
:1015D000C0004008B0004108B100B201B3013008BA
:1015E000B607310803110318013E0319F82AB7079B
:1015F000320803110318013E0319FF2AB807330804
:1016000003110318013E0319062BB9072908F2003C
:101610002E080A168A15D7220A128A157308831211
:101620000313C1007208C0004008B0004108B100B7
:10163000B201B3013008BC07310803110318013EA1
:101640000319232BBD07320803110318013E0319A8
:101650002A2BBE07330803110318013E0319312B4F
:10166000BF072A08F2002D080A168A15D7220A1287
:101670008A15730883120313C1007208C000400862
:10168000B0004108B100B201B3013008BC07310815
:1016900003110318013E03194E2BBD073208031135
:1016A0000318013E0319552BBE0733080311031815
:1016B000013E03195C2BBF072A08F2002E080A1608
:1016C0008A15D7220A128A15730883120313C100E0
:1016D0007208C0004008B0004108B100B201B30177
:1016E00008300310B00DB10DB20DB30DFF3E031D58
:1016F000712B3008BC07310803110318013E031990
:10170000822BBD07320803110318013E0319892BF0
:10171000BE07330803110318013E0319902BBF07BE
:101720003608B0003708B1003808B2003908B300F5
:1017300018300310B30CB20CB10CB00CFF3E031DFB
:10174000992B3008BC07310803110318013E031917
:10175000AA2BBD07320803110318013E0319B12B50
:10176000BE07330803110318013E0319B82BBF0746
:101770000830B0000310B60DB70DB80DB90DB00BA1
:10178000BA2B3B083A07B000B101B10D3008823ED8
:10179000C00031080318013EFF3EC100EC2B0130B0
:1017A000B0000310BC0DBD0DBE0DBF0DB00BD12B95
:1017B000B91FDB2BDC2BDD2B3C140130B0000310F8
:1017C000B60DB70DB80DB90DB00BDF2BFF30C0074C
:1017D0000318C10AFF30C107BE1FEF2BF02BCF2B20
:1017E000BA01B91FF42BF52B112CFF303605B000D0
:1017F000FF303705B100FF303805B2007F303905C2
:10180000B30033083204310430040319082C092CC6
:101810000C2CBA01BA0A112C3C1C0F2C102C112CC8
:10182000092C3A080319152C162C472C0130BC073B
:10183000003003180130BD07003003180130BE0727
:10184000003003180130BF073F1C272C282C472CE1
:101850003C08B0003D08B1003E08B2003F08B300AC
:101860000130B400330DB30CB20CB10CB00CB40B9E
:10187000322C3308BF003208BE003108BD003008EA
:10188000BC000130C0070318C10A0030C10741087D
:10189000803AFF0080307F02031D502CFF30400251
:1018A000031C532C542C5F2C7F3083120313BF0076
:1018B0008030BE000030BD000030BC00902C831290
:1018C00003134108803AFF0080307F02031D6A2C19
:1018D0000130400203186D2C6E2C7A2C00308312DC
:1018E0000313BF000030BE000030BD000030BC005C
:1018F000B501902C831203134008BB00FF30BC05D8
:10190000FF30BD057F30BE050030BF053B1C892C74
:101910008A2C8B2CBE173B08B0000310300CBF0084
:101920003508B0003008BF043F08AB003E08AA00ED
:101930003D08A9003C08A800080083120313D40046
:10194000D41FA32CA42C532ED409D40A5408803AB3
:10195000123E031CAC2CAD2C972D0A30A000003099
:10196000A1005408F400F501F41BF5036430F20003
:101970000030F3000A168A155D250A128A157308CD
:1019800083120313A3007208A2000A168A157B268D
:101990000A128A15831203132008C60001300310AF
:1019A000C60DFF3E031DCF2C0310460D593E84008B
:1019B0000A168A110A200A128A15C7000A168A1105
:1019C0000A200A128A15C8000A168A110A200A1269
:1019D0008A15C9000A168A110A200A128A15CA0035
:1019E0004A08AB004908AA004808A9004708A8000F
:1019F0006430A0000030A1005408A200A301A21B83
:101A0000A3030A168A157B260A128A15831203136A
:101A10002008CB0001300310CB0DFF3E031D0B2D22
:101A200003104B0D7D3E84000A168A110A200A120B
:101A30008A15CC000A168A110A200A128A15CD00CE
:101A40000A168A110A200A128A15CE000A168A116D
:101A50000A200A128A15CF004F08AF004E08AE00C8
:101A60004D08AD004C08AC000A128A1558210A1224
:101A70008A15831203132B08D3002A08D2002908E1
:101A8000D1002808D0000A30F2000030F3005408DA
:101A9000F400F501F41BF5030A168A155D250A12F8
:101AA0008A15720883120313C60001300310C60D95
:101AB000FF3E031D562D0310460D353E84000A16C9
:101AC0008A110A200A128A15C7000A168A110A20EA
:101AD0000A128A15C8000A168A110A200A128A15E3
:101AE000C9000A168A110A200A128A15CA004A0871
:101AF000AB004908AA004808A9004708A8005308F5
:101B0000AF005208AE005108AD005008AC000A12F8
:101B10008A1558210A128A15831203132B08C5004F
:101B20002A08C4002908C3002808C200FF2F54084F
:101B3000803A753E031C9D2D9E2D262E0A30F20004
:101B40000030F3005408F400F501F41BF5030A1605
:101B50008A155D250A128A15720883120313C600BE
:101B600001300310C60DFF3E031DB12D0310460DBD
:101B7000353E84000A168A110A200A128A15C70007
:101B80000A168A110A200A128A15C8000A168A1132
:101B90000A200A128A15C9000A168A110A200A1296
:101BA0008A15CA004A08AB004908AA004808A900DB
:101BB0004708A8000A30A0000030A1005408A20085
:101BC000A301A21BA3030A168A157B260A128A15F3
:101BD000831203132008CB0001300310CB0DFF3E0E
:101BE000031DED2D03104B0D593E84000A168A117A
:101BF0000A200A128A15CC000A168A110A200A1233
:101C00008A15CD000A168A110A200A128A15CE00FA
:101C10000A168A110A200A128A15CF004F08AF004F
:101C20004E08AE004D08AD004C08AC000A128A15F3
:101C300058210A128A15831203132B08C5002A089B
:101C4000C4002908C3002808C200FF2F5408C6009A
:101C500001300310C60DFF3E031D292E0310460D53
:101C6000353E84000A168A110A200A128A15C70016
:101C70000A168A110A200A128A15C8000A168A1141
:101C80000A200A128A15C9000A168A110A200A12A5
:101C90008A15CA004A08C5004908C4004808C3009C
:101CA0004708C200FF2F5408803A123E031C592EE9
:101CB0005A2E442F0A30A0000030A1005408F4002E
:101CC000F501F41BF5036430F2000030F3000A164E
:101CD0008A155D250A128A15730883120313A3005F
:101CE0007208A2000A168A157B260A128A15831228
:101CF00003132008C60001300310C60DFF3E031D6C
:101D00007C2E0310460D253E84000A168A110A20F7
:101D10000A128A15C7000A168A110A200A128A15A1
:101D2000C8000A168A110A200A128A15C9000A1662
:101D30008A110A200A128A15CA004A08AB0049080B
:101D4000AA004808A9004708A8006430A000003095
:101D5000A1005408A200A301A21BA3030A168A151E
:101D60007B260A128A15831203132008CB00013048
:101D70000310CB0DFF3E031DB82E03104B0D493E43
:101D800084000A168A110A200A128A15CC000A1643
:101D90008A110A200A128A15CD000A168A110A2011
:101DA0000A128A15CE000A168A110A200A128A150A
:101DB000CF004F08AF004E08AE004D08AD004C08F4
:101DC000AC000A128A1558210A128A1583120313CD
:101DD0002B08D3002A08D2002908D1002808D000F7
:101DE0000A30F2000030F3005408F400F501F41B4F
:101DF000F5030A168A155D250A128A1572088312E0
:101E00000313C60001300310C60DFF3E031D032F50
:101E10000310460D013E84000A168A110A200A1298
:101E20008A15C7000A168A110A200A128A15C800E4
:101E30000A168A110A200A128A15C9000A168A117E
:101E40000A200A128A15CA004A08AB004908AA00EB
:101E50004808A9004708A8005308AF005208AE0080
:101E60005108AD005008AC000A128A1558210A1218
:101E70008A15831203132B08C5002A08C4002908F9
:101E8000C3002808C200FF2F5408803A753E031C87
:101E90004A2F4B2FD32F0A30F2000030F3005408A2
:101EA000F400F501F41BF5030A168A155D250A12E4
:101EB0008A15720883120313C60001300310C60D81
:101EC000FF3E031D5E2F0310460D013E84000A16DF
:101ED0008A110A200A128A15C7000A168A110A20D6
:101EE0000A128A15C8000A168A110A200A128A15CF
:101EF000C9000A168A110A200A128A15CA004A085D
:101F0000AB004908AA004808A9004708A8000A3001
:101F1000A0000030A1005408A200A301A21BA3034B
:101F20000A168A157B260A128A15831203132008C3
:101F3000CB0001300310CB0DFF3E031D9A2F031081
:101F40004B0D253E84000A168A110A200A128A15B2
:101F5000CC000A168A110A200A128A15CD000A1628
:101F60008A110A200A128A15CE000A168A110A203E
:101F70000A128A15CF004F08AF004E08AE004D0878
:101F8000AD004C08AC000A128A1558210A128A15B5
:101F9000831203132B08C5002A08C4002908C300B4
:101FA0002808C200FF2F5408C60001300310C60DD8
:101FB000FF3E031DD62F0310460D013E84000A1676
:101FC0008A110A200A128A15C7000A168A110A20E5
:101FD0000A128A15C8000A168A110A200A128A15DE
:101FE000C9000A168A110A200A128A15CA004A086C
:101FF000C5004908C4004808C3004708C2000800DB
:10200000FF1B0A2883137F1883170008840A03190B
:10201000FF0A080010308A000408840A820700348E
:102020000034003480343F340034003420344134F0
:1020300000340034C8344234003400347A34443438
:10204000003440341C34463400345034C3344734F4
:1020500000342434743449348034963418344B3486
:102060002034BC34BE344C3428346B346E344E349B
:10207000F934023415345034EC347834AD346034EF
:10208000CA34F234493471340034003480343F347B
:10209000CD34CC34CC343D340A34D73423343C34BE
:1020A0006F34123483343A341734B734D13438347B
:1020B000AC34C53427343734BD3437348634353402
:1020C0009534BF34D63433347734CC342B34323473
:1020D0005F34703489343034FF34E634DB342E34EA
:1020E0000834E5343C341E3460344234A2340D34B8
:1020F00001340034003400340A3400340034003435
:102100006434003400340034E834033400340034E0
:102110001034273400340034A034863401340034C1
:10212000403442340F3400348034963498340034D0
:102130000034E134F53405340034CA349A343B3485
:1021400056346F346C3474346134673465343A34E3
:10215000003425342E34323466340034563400349E
:1021640083120313E80068080A168A1577220A16F0
:102174008A1183120313E000E1016008E60061089C
:10218400E7004330C5008030C4000030C300003095
:10219400C2004030AB00A030AA000030A9000030DB
:1021A400A8006608F2006708F3000030F31BFF3054
:1021B400F400F50001300A128A1120270A168A1148
:1021C400750883120313AF007408AE007308AD00E2
:1021D4007208AC000A128A1558210A168A11831251
:1021E40003132B08C9002A08C8002908C7002808B7
:1021F400C6000A168A11CA210A168A118312031309
:102204004508E5004408E4004308E3004208E2000E
:102214006508DF006408DE006308DD006208DC0096
:102224000800720883120313A0007308A100740845
:10223400A2000310210D220DA8002808031D232944
:1022440024292D290030F5000030F4000030F3007B
:102254000030F200C9297608A0007708A1007808A8
:10226400A2000310210D220DA7002708031D3B29FE
:102274003C293D292429F317FF30F205FF30F305EB
:102284000030F405F717FF30F605FF30F70500308E
:10229400F8050030A6000030A5000030A40000308E
:1022A400A3007F30A80298302707A0002008A802C6
:1022B4001830A7000130A0000310A30DA40DA50D34
:1022C400A60DA00B5E2978087402031D6F297708F8
:1022D4007302031D6F2976087202031C7229732985
:1022E4007E297608F2027708031C770FF302780838
:1022F400031C780AF402231401300310F20DF30DC9
:10230400F40DFF3E031D7F290130A702031D8B2915
:102314008C295C29A81F8F299029AA292808803A8A
:10232400973E0318962997299829242901300310E8
:10233400A60CA50CA40CA30CFF3E031D9929013087
:10234400A0002008A807031DA829A9299829C129A4
:1023540018302802031CAF29B029BC2924290130D4
:10236400A0000310A30DA40DA50DA60DA00BB32969
:102374000130A8022808031DC029C129B129260853
:10238400F5002508F4002408F3002308F2000800EF
:102394008312031349088039D3004908CA004A0745
:1023A400DA00C81FD629D729D8295A145A0803197C
:1023B400DC29DD29ED295A0A031DE129E229EA294C
:1023C4000030C9000030C8000030C7000030C6002B
:1023D400C817C901F5290030C9000030C800003011
:1023E400C7000030C60045088039CA004A08D30631
:1023F4004508CA004A07DB00C41F012A022A032A2F
:102404005B145B080319072A082A182A5B0A031DB0
:102414000C2A0D2A152A0030C5000030C4000030F3
:10242400C3000030C200C417C501202A0030C50013
:102434000030C4000030C3000030C200450844042A
:1024440043044204031D272A282A412A0030C900D4
:102454000030C8000030C7000030C6008030C80417
:102464007F30C9045308CA004A08C9044908C50092
:102474004808C4004708C3004608C2009C2B5A08F9
:10248400031D452A462A4F2A0030C5000030C400E7
:102494000030C3000030C2009C2B5A08CA00CB0194
:1024A4004B08CD005B084A02CC00031CCD034C084A
:1024B4007F3ED4004D080318013E003ED500490874
:1024C400D2004808D1004708D0004608CF000030A9
:1024D400C9000030C8000030C7000030C60000301A
:1024E400D9000030D8000030D7000030D600DB011E
:1024F400C52A5B0803197F2A802AA02A0130CA0052
:102504000310CF0DD00DD10DD20DCA0B822A01308C
:10251400CA000310C60DC70DC80DC90DCA0B8B2AFE
:10252400D91F952A962A972A46140130CA00031007
:10253400D60DD70DD80DD90DCA0B992A45085202CC
:10254400031DAE2A44085102031DAE2A430850025B
:10255400031DAE2A42084F02031CB12AB22AC12A23
:1025640059174208CF024308031C430FD002440802
:10257400031C440FD1024508031C450FD20201304D
:10258400CA004A08DB071A305B02031CCA2ACB2A9A
:102594007B2A5208510450044F040319D22AD32A27
:1025A400F22A5614F22A0130CA000310C60DC70DD0
:1025B400C80DC90DCA0BD72AD91FE12AE22AE32A7A
:1025C40046140130CA000310D60DD70DD80DD90D0D
:1025D400CA0BE52AFF30D4070318D50AFF30D50704
:1025E400C81FF52AF62AD52ADB01D91FFA2AFB2AA5
:1025F400172BFF305605CA00FF305705CB00FF30BC
:102604005805CC007F305905CD004D084C044B04CF
:102614004A0403190E2B0F2B122BDB01DB0A172B99
:10262400461C152B162B172B0F2B5B0803191B2B82
:102634001C2B4D2B0130C607003003180130C7078F
:10264400003003180130C807003003180130C907EF
:10265400491C2D2B2E2B4D2B4608CA004708CB00B6
:102664004808CC004908CD000130CE004D0DCD0CFA
:10267400CC0CCB0CCA0CCE0B382B4D08C9004C0823
:10268400C8004B08C7004A08C6000130D407031825
:10269400D50A0030D5075508803AFF0080307F0204
:1026A400031D562BFF305402031C592B5A2B682B45
:1026B400FF3083120313D4000030D5000030C9006A
:1026C4000030C8000030C7000030C6008312031376
:1026D4005508803AFF0080307F02031D732B0130C0
:1026E40054020318762B772B842B83120313D40103
:1026F400D5010030C9000030C8000030C7000030E8
:10270400C600D301831203135408DA005A1C8B2B1E
:102714008C2B8E2BC817922B7F30CA004A08C80511
:102724005A08CA0003104A0CC9005308CA004A08D0
:10273400C904382A080083120313D5006E305502E9
:10274400031CA52BA62BB32C3F30AB000030AA00F2
:102754000030A9000030A8006430F8000030F9000F
:102764005508C600C7014608FA004708FB000A16C8
:102774008A1523240A168A11780883120313C800C1
:1027840001300310C80DFF3E031DC32B0310480D79
:102794007D3E84000A168A110A200A168A11C9008D
:1027A4000A168A110A200A168A11CA000A168A1100
:1027B4000A200A168A11CB000A168A110A200A1660
:1027C4008A11CC004C08AF004B08AE004A08AD009B
:1027D4004908AC000A128A1558210A168A11831274
:1027E40003132B08D4002A08D3002908D200280890
:1027F400D1000A30F8000030F9005508C600C701BE
:102804004608F4004708F5006430F2000030F30095
:102814000A168A155D230A168A117308FB007208CA
:10282400FA000A168A1523240A168A1178088312D4
:102834000313C80001300310C80DFF3E031D1D2CF7
:102844000310480D593E84000A168A110A200A16FC
:102854008A11C9000A168A110A200A168A11CA00A6
:102864000A168A110A200A168A11CB000A168A113E
:102874000A200A168A11CC004C08AB004B08AA00A7
:102884004A08A9004908A8005408AF005308AE003C
:102894005208AD005108AC000A128A1558210A16D4
:1028A4008A11831203132B08D0002A08CF002908A9
:1028B400CE002808CD000A30F2000030F30055089D
:1028C400C600C7014608F4004708F5000A168A1531
:1028D4005D230A168A11720883120313C80001309B
:1028E4000310C80DFF3E031D722C0310480D353E26
:1028F40084000A168A110A200A168A11C9000A16C7
:102904008A110A200A168A11CA000A168A110A2094
:102914000A168A11CB000A168A110A200A168A118D
:10292400CC004C08AB004B08AA004A08A90049088F
:10293400A8005008AF004F08AE004E08AD004D0887
:10294400AC000A128A1558210A168A11831203133D
:102954002B08C5002A08C4002908C3002808C2009F
:10296400A72D0B305502031CB82CB92C642D3F3015
:10297400AB000030AA000030A9000030A8000A30E3
:10298400F8000030F9005508C600C7014608FA00EF
:102994004708FB000A168A1523240A168A117808A8
:1029A40083120313C80001300310C80DFF3E031D3A
:1029B400D62C0310480D593E84000A168A110A20A9
:1029C4000A168A11C9000A168A110A200A168A11DF
:1029D400CA000A168A110A200A168A11CB000A169E
:1029E4008A110A200A168A11CC004C08AF004B0841
:1029F400AE004A08AD004908AC000A128A155821F5
:102A04000A168A11831203132B08D4002A08D30050
:102A14002908D2002808D1000A30F2000030F3005F
:102A24005508C600C7014608F4004708F5000A1611
:102A34008A155D230A168A11720883120313C800CB
:102A440001300310C80DFF3E031D232D0310480D54
:102A5400353E84000A168A110A200A168A11C90012
:102A64000A168A110A200A168A11CA000A168A113D
:102A74000A200A168A11CB000A168A110A200A169D
:102A84008A11CC004C08AB004B08AA004A08A900E4
:102A94004908A8005408AF005308AE005208AD001E
:102AA4005108AC000A128A1558210A168A11831299
:102AB40003132B08C5002A08C4002908C3002808EA
:102AC400C200A72D3F30AB000030AA000030A9009F
:102AD4000030A8005508C60001300310C60DFF3EA3
:102AE400031D6F2D0310460D353E84000A168A110E
:102AF4000A200A168A11C7000A168A110A200A1621
:102B04008A11C8000A168A110A200A168A11C900F5
:102B14000A168A110A200A168A11CA004A08AF0046
:102B24004908AE004808AD004708AC000A128A15EF
:102B340058210A168A11831203132B08C5002A0888
:102B4400C4002908C3002808C20008008312031324
:102B540059088039E6005908DE005E07E800D81FEE
:102B6400B42DB52DB62D681468080319BA2DBB2DE4
:102B7400CB2D680A031DBF2DC02DC82D0030D900F0
:102B84000030D8000030D7000030D600D817D90163
:102B9400D32D0030D9000030D8000030D7000030E9
:102BA400D6005D088039E700670866060319DB2D47
:102BB400DC2DDD2D66175D08DE005E07E700DC1FF7
:102BC400E42DE52DE62D671467080319EA2DEB2D96
:102BD400FB2D670A031DEF2DF02DF82D0030DD00CD
:102BE4000030DC000030DB000030DA00DC17DD01EF
:102BF400032E0030DD000030DC000030DB0000304C
:102C0400DA00680867020318082E092E2F2E661FA3
:102C14000C2E0D2E112E8030DE005E08E6066808AC
:102C2400E9006708E8006908E7005608E9005A085F
:102C3400D6006908DA005708E9005B08D70069087C
:102C4400DB005808E9005C08D8006908DC00590872
:102C5400E9005D08D9006908DD00E9016708DE00C4
:102C6400DF015F08E10068085E02E000031CE10385
:102C74006108803AFF0080307F02031D432E1A3022
:102C84006002031C462E472E7E2E8312031359081E
:102C9400580457045604031D502E522E0130532E4F
:102CA4000030E9000030D9000030D8000030D700EF
:102CB4000030D6006708E800862E691C622E632E59
:102CC4006A2E6908DE0003105E0C0138E9006C2EE0
:102CD4000310E90C561C6F2E702E712EE91701306B
:102CE400DE00590DD90CD80CD70CD60CDE0B732E84
:102CF4000130DE005E08E8078312031367086802E8
:102D0400031C852E862E5F2E661B892E8A2ED32EBB
:102D14006808031D8E2E8F2E982E0030D9000030A7
:102D2400D8000030D7000030D600FF2F5A08D6074D
:102D34005B0803110318013E0319A12ED7075C0891
:102D440003110318013E0319A82ED8075D080311C7
:102D54000318013E0319AF2ED907591CB22EB32E06
:102D6400872F691CB62EB72EBE2E6908DE0003100D
:102D74005E0C0138E900C02E0310E90C561CC32E6A
:102D8400C42EC52EE9170130DE00590DD90CD80C1C
:102D9400D70CD60CDE0BC72E0130DE005E08E80728
:102DA400872F5908803AFF005D08803A7F02031D8F
:102DB400E52E5C085802031DE52E5B085702031D2F
:102DC400E52E5A0856020318E82EE92E412FFF304B
:102DD400DE00FF30DF00FF30E000FF30E1005A0882
:102DE400E2005B08E3005C08E4005D08E5005608C7
:102DF400E2025708031C570F002F012FE302580863
:102E0400031C580F062F072FE4025908031C590FFF
:102E14000C2F0D2FE5026208DE0763080318630F09
:102E2400142F152FDF0764080318640F1A2F1B2FA4
:102E3400E00765080318650AE1076108D90060081E
:102E4400D8005F08D7005E08D6008030DE005E0838
:102E5400E606E909E90A6908031D312F322F4F2FCD
:102E64000130D607003003180130D70700300318AB
:102E74000130D807003003180130D9074F2F5A0802
:102E8400D6025B08031C5B0FD7025C08031C5C0FB3
:102E9400D8025D08031C5D0FD90259085804570471
:102EA4005604031D562F572F832F6908031D5B2FCC
:102EB4005C2F832F0030D9000030D8000030D700B9
:102EC4000030D600FF2F0130DE000310D60DD70DE1
:102ED400D80DD90DDE0B672FE91F712F722F732FB9
:102EE4005614691C762F772F7A2F0314E90D7C2F43
:102EF4000310E90D68080319802F812F832F0130F7
:102F0400E802D81F862F872F652FE701E91F8B2F33
:102F14008C2F9A2F69087F390319912F922F952F9F
:102F2400E701E70A9A2F561C982F992F9A2F922F70
:102F3400670803199E2F9F2FD32F0130D607003027
:102F440003180130D707003003180130D8070030C8
:102F540003180130D907591CB02FB12FD32F5608AD
:102F6400DE005708DF005808E0005908E10001308E
:102F7400E200610DE10CE00CDF0CDE0CE20BBB2F78
:102F84006108D9006008D8005F08D7005E08D60041
:102F9400680A0319CE2FCF2FD32F0130DE005E082D
:102FA400E807680A0319D72FD82FDD2F6808031DF7
:102FB400DC2FDD2FEB2F0030D9000030D80000309B
:102FC400D7000030D6006808031DE92FEA2FEB2F45
:102FD400E601681CEE2FEF2FF12FD817F52F7F3065
:102FE400DE005E08D8056808DE0003105E0CD90018
:0C2FF400E61FFD2FFE2FFF2FD91708004D
:1034980071088A00700E8300FE0E7E0E09008312EA
:1034A80003130C1F582A592A5A2A0C131E080800FD
:1034B80000300A168A159B220A168A1501300A1648
:1034C8008A159B220A168A150800F3007308F20071
:1034D800F20DF20D831203131F087206C339720628
:1034E8009F009F140800F50075080A168A156922BE
:1034F8000A168A151030F400F40B802A00000A1608
:103508008A1553220A168A150800F300F2013A3088
:1035180073020318902A912A992A30307302031CE7
:10352800962A972A992AF201F20A720C0800F500E5
:1035380083120313081175080A168A15B5220A168C
:103548008A158312031388150B30F4006230F300D8
:10355800F30BAC2AF40BAC2A000083120313881176
:103568000800F200721CB92ABA2ABE2A8312031371
:103578000816C12A831203130812F21CC42AC52A8A
:10358800C72A8816C82A8812721DCB2ACC2ACE2AA6
:103598000817CF2A0813F21DD22AD32AD52A88174A
:1035A800D62A88130800FA00F601F7017208F40019
:1035B800F5017408F8007508F9007A1CE42AE52A70
:1035C800EB2A7808F6070318F70A7908F707013095
:1035D8000310F80DF90DFF3E031DEC2A0310FA0C39
:1035E8007A08031DF82AF92AE12A7708F3007608F1
:1035F800F2000800F3007303031D032B042B0A2BAE
:103608008B170B17831603130C130D2B8316031339
:103618000C139F131F129F12831603178801890129
:10362800831203131F083F3940389F00C3309F059A
:103638002130F200F20B1E2B831203131F142130CA
:10364800F200F20B252B0800F60076080F39F4007B
:103658007608F039F5008312031308157508F3008E
:1036680004300310F30CFF3E031D352B73080A16B4
:103678008A15B5220A168A158312031388151A307B
:10368800F300F30B452B0000831203138811740811
:103698000A168A15B5220A168A1583120313881585
:1036A8001A30F300F30B562B000083120313881112
:1036B8000800720873040319622B632B922BF7011D
:1036C800F70A712B01300310F20DF30DFF3E031DB5
:1036D800672B0130F6007608F707F31F742B752B5C
:1036E800662B73087502031D7B2B72087402031C7A
:1036F8007E2B7F2B852B7208F4027308031CF503BD
:10370800F50201300310F30CF20CFF3E031D862B6B
:103718000130F702031D912B922B752B7508F300CE
:103728007408F2000800F8007803031D9C2B9D2BF9
:10373800BA2B76087F3EFB007B08F70004300310A5
:10374800F70CFF3E031DA32B7708F9007B080F3900
:10375800FA0079080A168A159B220A168A157A0829
:103768000A168A159B220A168A15DC2B023078065F
:10377800031DBF2BC02BDC2B7608BF3EFB007B084C
:10378800F70004300310F70CFF3E031DC62B770823
:10379800F9007B080F39FA0079080A168A159B2266
:1037A8000A168A157A080A168A159B220A168A1595
:1037B800080083120313A001A101062C2008770733
:1037C800FA007808F9000318F90AA01FEC2BF9038E
:1037D8007908FB007B0883120313FF007A08840032
:1037E8000A168A1100200A168A150A168A1528232D
:1037F8000A168A15013083120313A0070318A10AB9
:103808000030A10720087707FA007808F9000318A4
:10381800F90AA01F102CF9037908FB007B08831212
:103828000313FF007A0884000A168A1100200A167A
:103838008A15003A031D212C222CE22B0800831242
:103848000313A101A2017808790403192C2C2D2C4B
:10385800642CA301A30A3B2C01300310F80DF90DC9
:10386800FF3E031D312C0130A0002008A307F91FDB
:103878003E2C3F2C302C01300310A10DA20DFF3E31
:10388800031D402C79087B02031D4C2C78087A0212
:10389800031C4F2C502C572C7808FA027908031C6B
:1038A800FB03FB02211401300310F90CF80CFF3E56
:1038B800031D582C0130A302031D632C642C3F2CDC
:1038C8002208F9002108F800080000307205831268
:1038D8000313A00000307305A10080307405A20016
:1038E8007F307505A3002308220421042004031D4A
:1038F8007E2C7F2C872C0030F5000030F40000303F
:10390800F3000030F20000307605A00000307705A3
:10391800A10080307805A2007F307905A300230834
:10392800220421042004031D9A2C9B2CA32C003074
:10393800F9000030F8000030F7000030F600790890
:103948007506031DB12C78087406031DB12C770881
:103958007306031DB12C760872060319B42CB52C16
:10396800B72C0310B82C03140800803083160313F7
:10397800A306270883120313D90083160313260806
:1039880083120313D8008316031325088312031325
:10399800D70083160313240883120313D600831653
:1039A8000313230883120313DD008316031322086D
:1039B80083120313DC0083160313210883120313F5
:1039C800DB0083160313200883120313DA000A1698
:1039D8008A11A8250A168A15831203135908831613
:1039E8000313A30083120313580883160313A200BA
:1039F80083120313570883160313A10083120313BA
:103A0800560883160313A00008007508740473048D
:103A180072040319102D112D542DFB01FB0A212DC1
:103A28000130FA000310F20DF30DF40DF50DFA0B49
:103A3800162D0130FA007A08FB07F51F242D252DD5
:103A4800142D75087902031D332D74087802031D9F
:103A5800332D73087702031D332D72087602031C79
:103A6800362D372D452D7208F6027308031C730F87
:103A7800F7027408031C740FF8027508031C750F0D
:103A8800F90201300310F50CF40CF30CF20CFF3EB4
:103A9800031D462D0130FB02031D532D542D252DEA
:103AA8007908F5007808F4007708F3007608F20042
:103AB8000800F801F51F612D622D692DF409F5093B
:103AC800F40A0319F50AF801F80AF31F6C2D6D2D95
:103AD800722DF209F309F20A0319F30A7208730442
:103AE8000319772D782DA72DF701F70A862D0130B8
:103AF8000310F20DF30DFF3E031D7C2D0130F6007F
:103B08007608F707F31F892D8A2D7B2D7308750218
:103B1800031D902D72087402031C932D942D9A2D69
:103B28007208F4027308031CF503F5020130031050
:103B3800F30CF20CFF3E031D9B2D0130F702031D11
:103B4800A62DA72D8A2D78080319AB2DAC2DB12DE4
:103B5800F409F509F40A0319F50A7508F30074085D
:103B6800F200080000300A168A15B5220A168A15CE
:103B78003430F700F130F600F60BC02DF70BC02DEE
:103B8800C52D03300A168A159B220A168A150D3090
:103B9800F700FB30F600F60BCF2DF70BCF2DD42D09
:103BA80003300A168A159B220A168A151D30F7005B
:103BB8009130F600F60BDE2DF70BDE2D03300A16DA
:103BC8008A159B220A168A1502300A168A159B2224
:103BD8000A168A1502300A168A159B220A168A15B1
:103BE80008300A168A159B220A168A1500300A160A
:103BF8008A159B220A168A150C300A168A159B22EA
:103C08000A168A1500300A168A159B220A168A1582
:103C180006300A168A159B220A168A1508000030F3
:103C280083120313A3000030A2000030A10000306B
:103C3800A00075087404730472040319242E252E39
:103C4800722EA401A40A352E0130FA000310F20DD9
:103C5800F30DF40DF50DFA0B2A2E0130FA007A084F
:103C6800A407F51F382E392E282E0130FA0003102C
:103C7800A00DA10DA20DA30DFA0B3B2E750879021C
:103C8800031D502E74087802031D502E7308770206
:103C9800031D502E72087602031C532E542E632ED9
:103CA8007208F6027308031C730FF7027408031CEA
:103CB800740FF8027508031C750FF90220140130FF
:103CC8000310F50CF40CF30CF20CFF3E031D642EEC
:103CD8000130A402031D712E722E392E2308F5001F
:103CE8002208F4002108F3002008F20008008312DB
:103CF8000313A501A11F812E822E892EA009A109D7
:103D0800A00A0319A10AA501A50AA31F8C2E8D2EAE
:103D1800962EA209A309A20A0319A30A0130F900E1
:103D28007908A506A601A7012008210403199D2EDC
:103D38009E2ED52EA401A40AAC2E01300310A00D8E
:103D4800A10DFF3E031DA22E0130F9007908A4073A
:103D5800A11FAF2EB02EA12E01300310A60DA70D66
:103D6800FF3E031DB12E21082302031DBD2E20088E
:103D78002202031CC02EC12EC82E2008A202210830
:103D8800031CA303A302261401300310A10CA00CEA
:103D9800FF3E031DC92E0130A402031DD42ED52ECB
:103DA800B02E25080319D92EDA2EDF2EA609A70969
:103DB800A60A0319A70A2708A1002608A0000800D8
:103DC800031083120313570D580DDE005E08031D00
:103DD800EE2EEF2EF82E0030D8000030D70000303D
:103DE800D6000030D5005B2F5508D9005608DA00F8
:103DF8005708DB005808DC001F300310DC0CDB0C14
:103E0800DA0CD90CFF3E031D012F5908DD00D71726
:103E1800FF30D505FF30D605FF30D7050030D8056F
:103E28009630DE02DE1F192F1A2F342F5E08803AD3
:103E3800973E0318202F212F222FEF2E0130031039
:103E4800D80CD70CD60CD50CFF3E031D232F013000
:103E5800D9005908DE07031D322F332F222F4B2F8D
:103E680020305E02031C392F3A2F462FEF2E0130E7
:103E7800D9000310D50DD60DD70DD80DD90B3D2F70
:103E88000130DE025E08031D4A2F4B2F3B2F5D08D1
:103E980003194F2F502F5B2FD509D609D709D809F9
:103EA800D50A0319D60A0319D70A0319D80A08002C
:103EB8000030720583120313A00000307305A100BF
:103EC80080307405A2007F307505A3002308220402
:103ED80021042004031D712F722F7A2F0030F50062
:103EE8000030F4000030F3000030F20000307605B6
:103EF800A00000307705A10080307805A2007F304F
:103F08007905A3002308220421042004031D8D2F12
:103F18008E2F962F0030F9000030F8000030F7009F
:103F28000030F600F51F992F9A2FBE2F0030A00001
:103F38000030A1000030A2008030A3007208A00267
:103F48007308031C730FA92FAA2FA1027408031C5E
:103F5800740FAF2FB02FA2027508031C750FB52F71
:103F6800B62FA3022308F5002208F4002108F30065
:103F78002008F200F91FC12FC22FE62F0030A00041
:103F88000030A1000030A2008030A3007608A00213
:103F98007708031C770FD12FD22FA1027808031CB2
:103FA800780FD72FD82FA2027908031C790FDD2F9D
:103FB800DE2FA3022308F9002208F8002108F700E1
:103FC8002008F6008030F5068030F9067908750279
:103FD800031DF82F78087402031DF82F7708730261
:103FE800031DF82F760872020318FB2FFC2FFE2FF3
:103FF8000310FF2F03140800FF3FFF3FFF3FFF3F61
:04400E00D620FF3F7A
:00000001FF
