:060000000A128A110C280F
:10000800FE00030EF0000A08F1000A128A11F92F07
:100018000A128A110F2883010A128A11C52E831623
:100028000313C000A930B100AC2E253045060319D2
:100038001E281F282D2840088400450883178000A3
:10004800013083120313EA006A0883160313C007FA
:10005800AC2EB201B301280884000A128A150A20BE
:100068000A128A112E3A031D3A283B289028331782
:10007800013083120313EA006A0883160313A807E2
:10008800BE01BF017F280A30F2000030F30083165A
:1000980003133F08F5003E08F4000A168A15A0224B
:1000A8000A128A11730883160313BF007208BE0070
:1000B800280884000A128A150A200A128A11D03EDA
:1000C80083120313EA00FF3003180030EB006A08BC
:1000D80083160313BE070318BF0A831203136B08A2
:1000E80083160313BF07013083120313EA006A085B
:1000F80083160313A807280884000A128A150A2001
:100108000A128A110A168A1538220A128A11031845
:100118008E288F2847289828BE01BF0133169828B3
:10012800831603133315B628013083160313A80763
:10013800FF30280784000A128A150A200A128A1139
:10014800C50083120313EA00EB016B08003A031998
:10015800AE28AC2E6A08003A0319BE2E663A031977
:100168009428AC2E0030320583120313EA000730BE
:1001780083160313330583120313EB006A086B0419
:100188000319C728C8285B2E83160313331ECD28EE
:10019800CE28D2280630BE000030BF0031088400C7
:1001A80083130008C100840A0008C200840A0008FA
:1001B800C300840A0008C400043083120313EA0051
:1001C8006A0883160313B1074408F5004308F400CE
:1001D8004208F3004108F2000030F9000030F8004E
:1001E8000030F7000030F6000A168A15A5260A1214
:1001F8008A110318002901291E29831603134408AC
:10020800F5004308F4004208F3004108F2000A161A
:100218008A1500220A128A11750883160313C4006E
:100228007408C3007308C2007208C1000330B20426
:100238000030B30483160313B801B9014408F5006C
:100248004308F4004208F3004108F2000030F900C6
:100258000030F8000030F7000030F6000A168A1562
:10026800AE230A128A1103183A293B293B2A0310A4
:1002780083160313430D440D823EB800FF30031864
:100288000030B900FF30B8070318B90AFF30B907C2
:100298000330F2000030F3003908F5003808F400A4
:1002A8000A168A15A0220A128A11730883160313E4
:1002B800B9007208B8000A3083120313A000003096
:1002C800A10083160313390883120313A3008316AE
:1002D8000313380883120313A2000A168A15C425CB
:1002E8000A128A1183120313210883160313B90013
:1002F80083120313200883160313B800B91F852936
:1003080086298C29FF30B8070318B90AFF30B907C6
:100318003803FF3A0A128A159D240A128A11831299
:100328000313450883160313BD00831203134408FF
:1003380083160313BC0083120313430883160313A5
:10034800BB0083120313420883160313BA00440840
:1003580083120313AB00831603134308831203139A
:10036800AA0083160313420883120313A9008316F5
:100378000313410883120313A800831603133D08CF
:1003880083120313AF00831603133C08831203136D
:10039800AE00831603133B0883120313AD008316C4
:1003A80003133A0883120313AC000A128A15582162
:1003B8000A128A11831203132B0883160313BD0034
:1003C800831203132A0883160313BC008312031332
:1003D800290883160313BB00831203132808831606
:1003E8000313BA003D08F5003C08F4003B08F3008D
:1003F8003A08F2003F30F9008030F8000030F7008A
:100408000030F6000A168A15A5260A128A11031862
:100418000E2A0F2A182AFF3083160313B807031869
:10042800B90AFF30B9073B2A831603133D08F500C4
:100438003C08F4003B08F3003A08F2004130F900A8
:100448002030F8000030F7000030F6000A168A1550
:10045800A5260A128A11031C322A332A3B2A0130A4
:1004680083160313B8070318B90A0030B9078316AF
:1004780003133F08803AFF0080307F02031D462A9D
:100488000D303E020318492A4A2A912A831603137B
:100498003E080A168A119D230A128A118312031331
:1004A8004508D9004408D8004308D7004208D600B8
:1004B80083160313440883120313DD008316031302
:1004C800430883120313DC008316031342088312C4
:1004D8000313DB0083160313410883120313DA00A6
:1004E8000A168A11A8250A128A11831203135908B9
:1004F80083160313C40083120313580883160313C7
:10050800C30083120313570883160313C200831210
:100518000313560883160313C100831603133908FF
:10052800803AFF0080307F02031D9C2A0A3038027F
:1005380003189F2AA02AF12A831603134408F500FA
:100548004308F4004208F3004108F2000030F900C3
:100558000030F8000030F7000030F6000A168A155F
:10056800AE230A128A110318BA2ABB2A632B8316F0
:100578000313440883120313D80083160313430894
:1005880083120313D700831603134208831203133D
:10059800D60083160313410883120313D5000A16E5
:1005A8008A152D260A128A11831203135808570434
:1005B80056045504031DE12AE22A632B831603130C
:1005C8003908803AFF0080307F02031DED2A02308F
:1005D8003802031CF02AF12A632B831603133D0803
:1005E800F5003C08F4003B08F3003A08F2004030FC
:1005F800F9008930F8007030F7005F30F6000A160D
:100608008A15A5260A128A1103180B2B0C2B152BF9
:10061800F73083160313B8070318B90AFF30B90770
:100628001D2BF83083160313B8070318B90AFF30D7
:10063800B90738080A128A159D240A128A118312EA
:100648000313450883160313BD00831203134408DC
:1006580083160313BC008312031343088316031382
:10066800BB0083120313420883160313BA0044081D
:10067800F5004308F4004208F3004108F2003D0881
:10068800F9003C08F8003B08F7003A08F6000A169B
:100698008A1158200A128A11750883160313B700A5
:1006A8007408B6007308B5007208B4000030C400BE
:1006B8000030C3000030C2000030C100C92B8316CF
:1006C8000313440883120313D80083160313430843
:1006D80083120313D70083160313420883120313EC
:1006E800D60083160313410883120313D5000A1694
:1006F8008A152D260A128A118312031358088316A5
:100708000313B70083120313570883160313B600A5
:1007180083120313560883160313B50083120313B9
:10072800550883160313B4003708F5003608F4009B
:100738003508F3003408F20000300A168A11102137
:100748000A128A11750883160313A3007408A200FD
:100758007308A1007208A0004408A7004308A60077
:100768004208A5004108A4000A168A15FE230A12A9
:100778008A11831603132308C4002208C300210822
:10078800C2002008C100B801B901C501C50A450861
:1007980083120313EA0001300310EA0DFF3E031D24
:1007A800D02B03106A0D693E84000A128A150A20AC
:1007B8000A128A11EB000A128A150A200A128A11F3
:1007C800EC000A128A150A200A128A11ED000A1290
:1007D8008A150A200A128A11EE006E08831603137E
:1007E8003702031D0D2C831203136D0883160313A0
:1007F8003602031D0D2C831203136C088316031392
:100808003502031D0D2C831203136B088316031383
:1008180034020318102C112C122C202C01308312B6
:100828000313EA006A0883160313C5070A3045064E
:10083800031D1F2C202CCB2B0330320583120313EE
:10084800EA00003083160313330583120313EB0009
:100858006A086B040319312C322CAE2C831603134F
:10086800400884002D308317800001308312031361
:10087800EA006A0883160313C007AE2C45088312E2
:100888000313EA0001300310EA0DFF3E031D472C55
:1008980003106A0D693E84000A128A150A200A129A
:1008A8008A11F2000A128A150A200A128A11F30024
:1008B8000A128A150A200A128A11F4000A128A15E5
:1008C8000A200A128A11F500831603133708F90063
:1008D8003608F8003508F7003408F6000A168A15B5
:1008E8005C250A128A11750883160313BD00740863
:1008F800BC007308BB007208BA000030F500003075
:10090800F4000030F3000A30F2003D08F9003C081A
:10091800F8003B08F7003A08F6000A168A154E2434
:100928000A128A11750883160313BD007408BC00E7
:100938007308BB007208BA00400884003A08303EC9
:1009480083178000013083120313EA006A088316B4
:100958000313C007013083160313C502450A031D9C
:10096800B62CB72C422CCD2C8316031340088400D8
:10097800303083178000013083120313EA006A08BD
:1009880083160313C007FF30B8070318B90AFF30EE
:10099800B9073908803AFF0080307F02031DD62C42
:1009A800013038020318D92CDA2CB82C831603131B
:1009B8003F08803AFF0080307F02031DE52C093094
:1009C8003E02031CE82CE92CEE2C08308316031396
:1009D800C500F22C831603133E08C5004508831290
:1009E8000313EA00EB016A0883160313BE0283129D
:1009F80003136B0883160313031CBF03BF024508C8
:100A08000319072D082D152D400884002E30831753
:100A18008000013083120313EA006A088316031367
:100A2800C00745080A128A159D240A128A118312E2
:100A38000313450883160313B000831203134408F5
:100A480083160313AF00831203134308831603139B
:100A5800AE0083120313420883160313AD00300857
:100A680083120313AF00831603132F088312031393
:100A7800AE00831603132E0883120313AD008316EA
:100A880003132D0883120313AC00831603134408C1
:100A980083120313AB008316031343088312031353
:100AA800AA0083160313420883120313A9008316AE
:100AB8000313410883120313A8000A128A15582148
:100AC8000A128A11831203132B08D8002A08D700A8
:100AD8002908D6002808D5000A168A152D260A12D4
:100AE8008A1183120313580883160313B70083125D
:100AF8000313570883160313B6008312031356080B
:100B080083160313B50083120313550883160313C2
:100B1800B400392E450883120313EA00013003108C
:100B2800EA0DFF3E031D932D03106A0D693E8400F4
:100B38000A128A150A200A128A11F2000A128A1564
:100B48000A200A128A11F3000A128A150A200A12C8
:100B58008A11F4000A128A150A200A128A11F5006D
:100B6800831603133708F9003608F8003508F7002C
:100B78003408F6000A168A155C250A128A117508C7
:100B880083160313BD007408BC007308BB00720809
:100B9800BA000030F5000030F4000030F3000A30ED
:100BA800F2003D08F9003C08F8003B08F7003A0855
:100BB800F6000A168A154E240A128A117508831639
:100BC8000313BD007408BC007308BB007208BA00A8
:100BD800400884003A08303E8317800001308312B1
:100BE8000313EA006A0883160313C0074508831233
:100BF8000313EA0001300310EA0DFF3E031DFF2D29
:100C080003106A0D693E84000A128A150A200A1226
:100C18008A11F2000A128A150A200A128A11F300B0
:100C28000A128A150A200A128A11F4000A128A1571
:100C38000A200A128A11F500831603133708F900EF
:100C48003608F8003508F7003408F6000A168A1541
:100C58004E240A128A11750883160313B700740804
:100C6800B6007308B5007208B4000130C502450A21
:100C7800031D3F2E402E8E2D542E40088400303008
:100C880083178000013083120313EA006A08831671
:100C98000313C007FF30BE070318BF0AFF30BF07A2
:100CA8003E083F04031D592E5A2E412EAC2E8316A2
:100CB80003133E083F04031D622E632E712E37086E
:100CC800360435043404031D6A2E6B2E712E013050
:100CD800BE070318BF0A0030BF073F08803A803CB0
:100CE800031D782E3E08450203187B2E7C2E7D2E90
:100CF800902E831603133F08803A83120313EA00E9
:100D080080306A02031D8C2E8316031345083E02A9
:100D180003188F2E902E902E03308316031332055E
:100D280083120313EA00003083160313330583127A
:100D38000313EB006A086B040319A32EA42EAC2E30
:100D480083160313400884002D308317800024285D
:100D5800013083160313A807FF30280784000A12FE
:100D68008A150A200A128A11C5004508031DBD2EDE
:100D7800BE2E1928831603134008840083178001A8
:100D8800080083120313850183160313D00183120D
:100D98000313EF01EF0A00300A128A11CF270A1253
:100DA8008A110E300A168A154A220A128A11003050
:100DB800F200F3000A128A15C3200A128A110130C0
:100DC800F2000030F3000A128A15C3200A128A11B1
:100DD80083160313880183120313880183160313F0
:100DE80089018312031389010A168A1100200A1245
:100DF8008A110A168A150B220A128A11F601F60AB6
:100E080001300A168A1580220A128A119130F500DB
:100E18008030F6000A168A1526230A128A11F6016E
:100E2800F60A02300A168A1580220A128A119E30A2
:100E3800F5008030F6000A168A1526230A128A1150
:100E4800033083160313C7009730C600C60B2A2F3A
:100E5800C70B2A2F8316031350080A168A15FB247A
:100E68000A128A11831203135F0883160313CB0037
:100E7800831203135E0883160313CA008312031335
:100E88005D0883160313C900831203135C088316D5
:100E98000313C800831203136F080A168A15FB246C
:100EA8000A128A11831203135F0883160313CF00F3
:100EB800831203135E0883160313CE0083120313F1
:100EC8005D0883160313CD00831203135C08831691
:100ED8000313CC00AB30A8004B08AC004A08AB00A9
:100EE8004908AA004808A90090300A128A1113205C
:100EF8000A128A11AB3083160313A8004F08AC00FE
:100F08004E08AB004D08AA004C08A90010300A1280
:100F18008A1113200A128A11F601F60A02300A16FB
:100F28008A1580220A128A11053083160313C60017
:100F3800C60B9C2F9F2F9030F5000130F6000A1643
:100F48008A1526230A128A110830F60002300A167A
:100F58008A1580220A128A11053083160313C600E7
:100F6800C60BB42FB72F1030F5000130F6000A1663
:100F78008A1526230A128A111A3083160313C7000A
:100F8800F730C600C60BC62FC70BC62FCB2F242F92
:100F98000A128A110C28F3007303031DD42FD52FCE
:100FA800DB2F8B170B17831603130C13DE2F8316F7
:100FB80003130C139F131F129F1283160317880124
:100FC8008901831203131F083F3940389F00C3303B
:100FD8009F052130F200F20BEF2F831203131F1429
:100FE8002130F200F20BF62F080071088A00700E0B
:100FF8008300FE0E7E0E0900FF1B0A2883137F184C
:1010080083170008840A0319FF0A080008308A00B9
:101018000408840A820700340034003480343F34E2
:10102800003400342034413400340034C8344234AD
:10103800003400347A344434003440341C344634A8
:1010480000345034C33447340034243474344934BD
:101058008034963418344B342034BC34BE344C3489
:1010680028346B346E344E34F93402341534503429
:10107800EC347834AD346034CA34F23449347134E1
:101088000034003480343F34CD34CC34CC343D3457
:101098000A34D73423343C346F34123483343A342A
:1010A8001734B734D1343834AC34C53427343734F2
:1010B800BD343734863435349534BF34D63433347C
:1010C8007734CC342B3432345F3470348934303450
:1010D800FF34E634DB342E340834E5343C341E3433
:1010E80060344234A2340D34013400340034003406
:1010F8000A340034003400346434003400340034DA
:10110800E834033400340034103427340034003415
:10111800A034863401340034403442340F3400346F
:1011280080349634983400340034E134F53405348E
:101138000034CA349A343B3456346F346C347434C3
:1011480031342034203456346F346C3474343234AF
:10115800003430342E343034303456342034203493
:1011680030342E34303430345634003425342E3470
:061178003234663400343D
:1011860026298316031708148316031305145729F3
:101196008316031788148316031385145729831699
:1011A6000317081583160313051557298316031706
:1011B60088158316031385155729831603170816F2
:1011C6008316031385165729831603178816831665
:1011D60003130914572983160317081783160313D5
:1011E60089145729831603178817831603130915BD
:1011F600572983160317091483160313061557294F
:101206008316031789148316031386155729831625
:101216000317091583160313861457298316031714
:1012260089158316031306165729831603170916FD
:101236008316031306145729831603178916831674
:101246000313861657297308003A03192B295729C1
:101256007208003A0319C428013A0319CB28033A45
:101266000319D228013A0319D928073A0319E028A5
:10127600013A0319E728033A0319EE28013A03193C
:10128600F5280F3A0319FC28013A03190329033AF2
:1012960003190A29013A03191129073A03191829CA
:1012A600013A03191F2957290800831203132B0833
:1012B6008039B5002B08B0003007BB00AA1F64298F
:1012C600652966293B143B0803196A296B297A2983
:1012D6003B0A031D6F29702978290030AB000030C6
:1012E600AA000030A9000030A800AA178229003001
:1012F600AB000030AA000030A9000030A8002F087B
:101306008039B0003008B5062F08B0003007BA00A3
:10131600AE1F8E298F2990293A143A080319942969
:101326009529A4293A0A031D99299A29A229003048
:10133600AF000030AE000030AD000030AC00AE179C
:10134600AC290030AF000030AE000030AD000030F8
:10135600AC003A080319B029B129B6293B08031D88
:10136600B529B629BF290030AB000030AA000030ED
:10137600A9000030A8009C2C2808F2002E080A16A6
:101386008A15C5220A128A15730883120313C1002F
:101396007208C0004008B000B101B201B3013308C1
:1013A600B9003208B8003108B7003008B600410865
:1013B600B000B101B201B3013308BF003208BE006C
:1013C6003108BD003008BC002908F2002D080A16B5
:1013D6008A15C5220A128A15730883120313C100DF
:1013E6007208C0004008B000B101B201B301300874
:1013F600B607310803110318013E0319032AB7077C
:10140600320803110318013E03190A2AB8073308E4
:1014160003110318013E0319112AB9074108B00048
:10142600B101B201B3013008BC073108031103183A
:10143600013E03191F2ABD07320803110318013E96
:101446000319262ABE07330803110318013E0319A0
:101456002D2ABF072A08F2002C080A168A15C5226B
:101466000A128A15730883120313C1007208C0009A
:101476004008B000B101B201B3013008B607310827
:1014860003110318013E0319492AB707320803114D
:101496000318013E0319502AB8073308031103182D
:1014A600013E0319572AB9074108B000B101B2013C
:1014B600B3013008BC07310803110318013E0319B4
:1014C600652ABD07320803110318013E03196C2A69
:1014D600BE07330803110318013E0319732ABF0719
:1014E6000830B0000310B60DB70DB80DB90DB00B2E
:1014F600752A2908F2002C080A168A15C5220A122E
:101506008A15730883120313C1007208C0004008CD
:10151600B0004108B100B201B3013008B607310886
:1015260003110318013E0319992AB707320803115C
:101536000318013E0319A02AB8073308031103183C
:10154600013E0319A72AB9072808F2002D080A1632
:101556008A15C5220A128A15730883120313C1005D
:101566007208C0004008B0004108B100B201B301E2
:101576003008B607310803110318013E0319C42ABF
:10158600B707320803110318013E0319CB2AB8071F
:10159600330803110318013E0319D22AB90708308C
:1015A600B0000310B60DB70DB80DB90DB00BD42AA7
:1015B6002808F2002C080A168A15C5220A128A156E
:1015C600730883120313C1007208C0004008B000FC
:1015D6004108B100B201B3013008B6073108031162
:1015E6000318013E0319F82AB70732080311031836
:1015F600013E0319FF2AB807330803110318013EF9
:101606000319062BB9072908F2002E080A168A15AF
:10161600C5220A128A15730883120313C1007208C1
:10162600C0004008B0004108B100B201B301300863
:10163600BC07310803110318013E0319232BBD070C
:10164600320803110318013E03192A2BBE0733087B
:1016560003110318013E0319312BBF072A08F200B4
:101666002D080A168A15C5220A128A1573088312CE
:101676000313C1007208C0004008B0004108B10061
:10168600B201B3013008BC07310803110318013E4B
:1016960003194E2BBD07320803110318013E031927
:1016A600552BBE07330803110318013E03195C2BA3
:1016B600BF072A08F2002E080A168A15C5220A1242
:1016C6008A15730883120313C1007208C00040080C
:1016D600B0004108B100B201B30108300310B00DEB
:1016E600B10DB20DB30DFF3E031D712B3008BC07C3
:1016F600310803110318013E0319822BBD07320876
:1017060003110318013E0319892BBE073308031181
:101716000318013E0319902BBF073608B00037089F
:10172600B1003808B2003908B30018300310B30C02
:10173600B20CB10CB00CFF3E031D992B3008BC0750
:10174600310803110318013E0319AA2BBD073208FD
:1017560003110318013E0319B12BBE073308031109
:101766000318013E0319B82BBF070830B000031059
:10177600B60DB70DB80DB90DB00BBA2B3B083A072D
:10178600B000B101B10D3008823EC0003108031827
:10179600013EFF3EC100EC2B0130B0000310BC0D32
:1017A600BD0DBE0DBF0DB00BD12BB91FDB2BDC2B36
:1017B600DD2B3C140130B0000310B60DB70DB80D8B
:1017C600B90DB00BDF2BFF30C0070318C10AFF307D
:1017D600C107BE1FEF2BF02BCF2BBA01B91FF42B7D
:1017E600F52B112CFF303605B000FF303705B10060
:1017F600FF303805B2007F303905B30033083204B4
:10180600310430040319082C092C0C2CBA01BA0A2D
:10181600112C3C1C0F2C102C112C092C3A080319E6
:10182600152C162C472C0130BC070030031801304C
:10183600BD07003003180130BE0700300318013021
:10184600BF073F1C272C282C472C3C08B0003D081E
:10185600B1003E08B2003F08B3000130B400330DBA
:10186600B30CB20CB10CB00CB40B322C3308BF0065
:101876003208BE003108BD003008BC000130C00788
:101886000318C10A0030C1074108803AFF008030C2
:101896007F02031D502CFF304002031C532C542C96
:1018A6005F2C7F3083120313BF008030BE000030F0
:1018B600BD000030BC00902C831203134108803A0F
:1018C600FF0080307F02031D6A2C0130400203189E
:1018D6006D2C6E2C7A2C003083120313BF0000305F
:1018E600BE000030BD000030BC00B501902C831254
:1018F60003134008BB00FF30BC05FF30BD057F3039
:10190600BE050030BF053B1C892C8A2C8B2CBE17CC
:101916003B08B0000310300CBF003508B00030089B
:10192600BF043F08AB003E08AA003D08A9003C08DA
:10193600A800080083120313D400D41FA32CA42CE0
:10194600532ED409D40A5408803A123E031CAC2CF8
:10195600AD2C972D0A30A0000030A1005408F400E9
:10196600F501F41BF5036430F2000030F3000A16AB
:101976008A15A2240A128A15730883120313A30078
:101986007208A2000A168A15C4250A128A1583123D
:1019960003132008C60001300310C60DFF3E031DC9
:1019A600CF2C0310460D593E84000A128A150A20D0
:1019B6000A128A15C7000A128A150A200A128A15FF
:1019C600C8000A128A150A200A128A15C9000A12C4
:1019D6008A150A200A128A15CA004A08AB00490865
:1019E600AA004808A9004708A8006430A0000030F3
:1019F600A1005408A200A301A21BA3030A168A157C
:101A0600C4250A128A15831203132008CB0001305D
:101A16000310CB0DFF3E031D0B2D03104B0D7D3E1A
:101A260084000A128A150A200A128A15CC000A12A4
:101A36008A150A200A128A15CD000A128A150A206A
:101A46000A128A15CE000A128A150A200A128A1567
:101A5600CF004F08AF004E08AE004D08AD004C0851
:101A6600AC000A128A1558210A128A15831203132A
:101A76002B08D3002A08D2002908D1002808D00054
:101A86000A30F2000030F3005408F400F501F41BAC
:101A9600F5030A168A15A2240A128A1572088312F9
:101AA6000313C60001300310C60DFF3E031D562D5D
:101AB6000310460D353E84000A128A150A200A12C2
:101AC6008A15C7000A128A150A200A128A15C80042
:101AD6000A128A150A200A128A15C9000A128A15DC
:101AE6000A200A128A15CA004A08AB004908AA0049
:101AF6004808A9004708A8005308AF005208AE00DE
:101B06005108AD005008AC000A128A1558210A1275
:101B16008A15831203132B08C5002A08C400290856
:101B2600C3002808C200FF2F5408803A753E031CE4
:101B36009D2D9E2D262E0A30F2000030F30054080B
:101B4600F400F501F41BF5030A168A15A2240A12FD
:101B56008A15720883120313C60001300310C60DDE
:101B6600FF3E031DB12D0310460D353E84000A12BB
:101B76008A150A200A128A15C7000A128A150A202F
:101B86000A128A15C8000A128A150A200A128A152C
:101B9600C9000A128A150A200A128A15CA004A08BA
:101BA600AB004908AA004808A9004708A8000A305F
:101BB600A0000030A1005408A200A301A21BA303A9
:101BC6000A168A15C4250A128A15831203132008D9
:101BD600CB0001300310CB0DFF3E031DED2D03108E
:101BE6004B0D593E84000A128A150A200A128A15DC
:101BF600CC000A128A150A200A128A15CD000A128A
:101C06008A150A200A128A15CE000A128A150A2097
:101C16000A128A15CF004F08AF004E08AE004D08D5
:101C2600AD004C08AC000A128A1558210A128A1512
:101C3600831203132B08C5002A08C4002908C30011
:101C46002808C200FF2F5408C60001300310C60D35
:101C5600FF3E031D292E0310460D353E84000A1251
:101C66008A150A200A128A15C7000A128A150A203E
:101C76000A128A15C8000A128A150A200A128A153B
:101C8600C9000A128A150A200A128A15CA004A08C9
:101C9600C5004908C4004808C3004708C200FF2F12
:101CA6005408803A123E031C592E5A2E442F0A30ED
:101CB600A0000030A1005408F400F501F41BF50360
:101CC6006430F2000030F3000A168A15A2240A12C4
:101CD6008A15730883120313A3007208A2000A165A
:101CE6008A15C4250A128A15831203132008C60012
:101CF60001300310C60DFF3E031D7C2E0310460D5A
:101D0600253E84000A128A150A200A128A15C7007F
:101D16000A128A150A200A128A15C8000A128A159A
:101D26000A200A128A15C9000A128A150A200A12FE
:101D36008A15CA004A08AB004908AA004808A90043
:101D46004708A8006430A0000030A1005408A20093
:101D5600A301A21BA3030A168A15C4250A128A1513
:101D6600831203132008CB0001300310CB0DFF3E76
:101D7600031DB82E03104B0D493E84000A128A1526
:101D86000A200A128A15CC000A128A150A200A129B
:101D96008A15CD000A128A150A200A128A15CE0063
:101DA6000A128A150A200A128A15CF004F08AF00B8
:101DB6004E08AE004D08AD004C08AC000A128A155C
:101DC60058210A128A15831203132B08D3002A08F6
:101DD600D2002908D1002808D0000A30F2000030CD
:101DE600F3005408F400F501F41BF5030A168A15EE
:101DF600A2240A128A15720883120313C600013040
:101E06000310C60DFF3E031D032F0310460D013EB2
:101E160084000A128A150A200A128A15C7000A12B5
:101E26008A150A200A128A15C8000A128A150A207B
:101E36000A128A15C9000A128A150A200A128A1578
:101E4600CA004A08AB004908AA004808A900470882
:101E5600A8005308AF005208AE005108AD00500864
:101E6600AC000A128A1558210A128A158312031326
:101E76002B08C5002A08C4002908C3002808C20088
:101E8600FF2F5408803A753E031C4A2F4B2FD32F41
:101E96000A30F2000030F3005408F400F501F41B98
:101EA600F5030A168A15A2240A128A1572088312E5
:101EB6000313C60001300310C60DFF3E031D5E2F3F
:101EC6000310460D013E84000A128A150A200A12E2
:101ED6008A15C7000A128A150A200A128A15C8002E
:101EE6000A128A150A200A128A15C9000A128A15C8
:101EF6000A200A128A15CA004A08AB004908AA0035
:101F06004808A9004708A8000A30A0000030A10030
:101F16005408A200A301A21BA3030A168A15C4250E
:101F26000A128A15831203132008CB00013003100E
:101F3600CB0DFF3E031D9A2F03104B0D253E84004B
:101F46000A128A150A200A128A15CC000A128A1564
:101F56000A200A128A15CD000A128A150A200A12C8
:101F66008A15CE000A128A150A200A128A15CF008F
:101F76004F08AF004E08AE004D08AD004C08AC004F
:101F86000A128A1558210A128A15831203132B087E
:101F9600C5002A08C4002908C3002808C200FF2F6C
:101FA6005408C60001300310C60DFF3E031DD62F90
:101FB6000310460D013E84000A128A150A200A12F1
:101FC6008A15C7000A128A150A200A128A15C8003D
:101FD6000A128A150A200A128A15C9000A128A15D7
:101FE6000A200A128A15CA004A08C5004908C40010
:101FF6004808C3004708C20008000230F80007304E
:10200600F7005330F600F60B0628F70B0628F80BF8
:10201600062830300A168A154A220A168A110D3009
:10202600F700FB30F600F60B1628F70B16281B28D0
:1020360030300A168A154A220A168A110330F7002A
:102046009730F600F60B2528F70B25282A2830307E
:102056000A168A154A220A168A110330F7009730A3
:10206600F600F60B3428F70B3428392838300A16D0
:102076008A154A220A168A1108300A168A154A2231
:102086000A168A1101300A168A154A220A168A1178
:1020960006300A168A154A220A168A110C300A16C2
:1020A6008A154A220A168A1108000310740D750D46
:1020B60083120313A5002508031D622863286C28D4
:1020C6000030F5000030F4000030F3000030F2007C
:1020D6000F290310780D790DA4002408031D742818
:1020E600752876286328F417FF30F205FF30F305CC
:1020F600FF30F4050030F505F817FF30F605FF3020
:10210600F705FF30F8050030F9050030A300003070
:10211600A2000030A1000030A0007F30A502A03050
:102126002407FA007A08A5022030A4000130FA003C
:102136000310A00DA10DA20DA30DFA0B9B28790883
:102146007502031DB02878087402031DB0287708AD
:102156007302031DB02876087202031CB328B42844
:10216600C3287608F2027708031C770FF302780873
:10217600031C780FF4027908031C790FF50220146A
:102186000130FA000310F20DF30DF40DF50DFA0B04
:10219600C5280130A402031DD128D2289928A51FDD
:1021A600D528D628F0282508803A9F3E0318DC2833
:1021B600DD28DE28632801300310A30CA20CA10C35
:1021C600A00CFF3E031DDF280130FA007A08A507A0
:1021D600031DEE28EF28DE28072920302502031CE0
:1021E600F528F628022963280130FA000310A00D0D
:1021F600A10DA20DA30DFA0BF9280130A5022508A1
:10220600031D06290729F7282308F5002208F400EC
:102216002108F3002008F200080083120313A0002F
:1022260020080319172918292C29F51F1B291C29F1
:102236002C297209A2007309A3007409A400750968
:10224600A500A20A0319A30A0319A40A0319A50AD9
:1022560034297508A5007408A4007308A300720841
:10226600A2007508740473047204031D3B293C29FB
:1022760045290030F5000030F4000030F30000304E
:10228600F200C9299630A10055290130F6007608DA
:10229600A10701300310A50CA40CA30CA20CFF3E51
:1022A600031D4D29FE302505031D5A295B294829A2
:1022B60077290130F6007608A1070130A207003021
:1022C60003180130A307003003180130A4070030BB
:1022D60003180130A50701300310A50CA40CA30CAC
:1022E600A20CFF3E031D6F29FF302505031D7C2927
:1022F6007D295C2989290130A1020130F6000310ED
:10230600A20DA30DA40DA50DF60B8229A41B8C29E5
:102316008D299329023021020318922993297E29B7
:102326002118962997299F29FF30A205FF30A3057A
:102336007F30A405FF30A5050310A10C2108F60087
:10234600F701F801F90118300310F60DF70DF80D35
:10235600F90DFF3E031DA7297608A2047708A304FA
:102366007808A4047908A50420080319BB29BC2908
:10237600C129F51FBF29C029C129A5172508F500C0
:102386002408F4002308F3002208F2000800831250
:10239600031349088039D3004908CA004A07DA00FE
:1023A600C81FD629D729D8295A145A080319DC294F
:1023B600DD29ED295A0A031DE129E229EA2900301F
:1023C600C9000030C8000030C7000030C600C8177A
:1023D600C901F5290030C9000030C8000030C70027
:1023E6000030C60045088039CA004A08D3064508A9
:1023F600CA004A07DB00C41F012A022A032A5B140B
:102406005B080319072A082A182A5B0A031D0C2AE7
:102416000D2A152A0030C5000030C4000030C30064
:102426000030C200C417C501202A0030C5000030A4
:10243600C4000030C3000030C20045084404430411
:102446004204031D272A282A412A0030C9000030E9
:10245600C8000030C7000030C6008030C8047F3096
:10246600C9045308CA004A08C9044908C5004808EF
:10247600C4004708C3004608C2009C2B5A08031D27
:10248600452A462A4F2A0030C5000030C4000030D5
:10249600C3000030C2009C2B5A08CA00CB014B086F
:1024A600CD005B084A02CC00031CCD034C087F3EDE
:1024B600D4004D080318013E003ED5004908D2005D
:1024C6004808D1004708D0004608CF000030C900B0
:1024D6000030C8000030C7000030C6000030D90008
:1024E6000030D8000030D7000030D600DB01C52A06
:1024F6005B0803197F2A802AA02A0130CA0003102C
:10250600CF0DD00DD10DD20DCA0B822A0130CA00D3
:102516000310C60DC70DC80DC90DCA0B8B2AD91FCE
:10252600952A962A972A46140130CA000310D60D1A
:10253600D70DD80DD90DCA0B992A45085202031D8D
:10254600AE2A44085102031DAE2A43085002031D59
:10255600AE2A42084F02031CB12AB22AC12A5917D1
:102566004208CF024308031C430FD0024408031C51
:10257600440FD1024508031C450FD2020130CA00A0
:102586004A08DB071A305B02031CCA2ACB2A7B2ABD
:102596005208510450044F040319D22AD32AF22AAE
:1025A6005614F22A0130CA000310C60DC70DC80D15
:1025B600C90DCA0BD72AD91FE12AE22AE32A4614F3
:1025C6000130CA000310D60DD70DD80DD90DCA0B90
:1025D600E52AFF30D4070318D50AFF30D507C81FF0
:1025E600F52AF62AD52ADB01D91FFA2AFB2A172B48
:1025F600FF305605CA00FF305705CB00FF3058059F
:10260600CC007F305905CD004D084C044B044A04DC
:1026160003190E2B0F2B122BDB01DB0A172B461C83
:10262600152B162B172B0F2B5B0803191B2B1C2B9B
:102636004D2B0130C607003003180130C7070030A4
:1026460003180130C807003003180130C907491CB8
:102656002D2B2E2B4D2B4608CA004708CB004808C9
:10266600CC004908CD000130CE004D0DCD0CCC0C70
:10267600CB0CCA0CCE0B382B4D08C9004C08C80031
:102686004B08C7004A08C6000130D4070318D50A0C
:102696000030D5075508803AFF0080307F02031DC1
:1026A600562BFF305402031C592B5A2B682BFF3034
:1026B60083120313D4000030D5000030C900003067
:1026C600C8000030C7000030C60083120313550847
:1026D600803AFF0080307F02031D732B01305402C5
:1026E6000318762B772B842B83120313D401D50181
:1026F6000030C9000030C8000030C7000030C600F6
:10270600D301831203135408DA005A1C8B2B8C2B2B
:102716008E2BC817922B7F30CA004A08C8055A0864
:10272600CA0003104A0CC9005308CA004A08C90463
:10273600382A080083120313D5006E305502031C95
:10274600A52BA62BB32C3F30AB000030AA000030DF
:10275600A9000030A8006430F8000030F9005508E0
:10276600C600C7014608FA004708FB000A168A1584
:1027760068230A168A11780883120313C8000130E9
:102786000310C80DFF3E031DC32B0310480D7D3EED
:1027960084000A128A150A200A168A11C9000A122A
:1027A6008A150A200A168A11CA000A128A150A20F0
:1027B6000A168A11CB000A128A150A200A168A11ED
:1027C600CC004C08AF004B08AE004A08AD004908E3
:1027D600AC000A128A1558210A168A1183120313AD
:1027E6002B08D4002A08D3002908D2002808D100D3
:1027F6000A30F8000030F9005508C600C70146083F
:10280600F4004708F5006430F2000030F3000A16C1
:102816008A15EC220A168A117308FB007208FA0060
:102826000A168A1568230A168A1178088312031372
:10283600C80001300310C80DFF3E031D1D2C0310F8
:10284600480D593E84000A128A150A200A168A1172
:10285600C9000A128A150A200A168A11CA000A1223
:102866008A150A200A168A11CB000A128A150A202E
:102876000A168A11CC004C08AB004B08AA004A087D
:10288600A9004908A8005408AF005308AE00520832
:10289600AD005108AC000A128A1558210A168A1191
:1028A600831203132B08D0002A08CF002908CE0074
:1028B6002808CD000A30F2000030F3005508C600A3
:1028C600C7014608F4004708F5000A168A15EC22E7
:1028D6000A168A11720883120313C8000130031006
:1028E600C80DFF3E031D722C0310480D353E8400B3
:1028F6000A128A150A200A168A11C9000A128A15AE
:102906000A200A168A11CA000A128A150A200A160D
:102916008A11CB000A128A150A200A168A11CC00DF
:102926004C08AB004B08AA004A08A9004908A800B1
:102936005008AF004F08AE004E08AD004D08AC0081
:102946000A128A1558210A168A11831203132B08B4
:10295600C5002A08C4002908C3002808C200A72DFC
:102966000B305502031CB82CB92C642D3F30AB003C
:102976000030AA000030A9000030A8000A30F80094
:102986000030F9005508C600C7014608FA00470896
:10299600FB000A168A1568230A168A11780883121C
:1029A6000313C80001300310C80DFF3E031DD62CCB
:1029B6000310480D593E84000A128A150A200A1689
:1029C6008A11C9000A128A150A200A168A11CA0033
:1029D6000A128A150A200A168A11CB000A128A15CB
:1029E6000A200A168A11CC004C08AF004B08AE002C
:1029F6004A08AD004908AC000A128A1558210A1681
:102A06008A11831203132B08D4002A08D30029083D
:102A1600D2002808D1000A30F2000030F300550831
:102A2600C600C7014608F4004708F5000A168A15CD
:102A3600EC220A168A11720883120313C8000130A9
:102A46000310C80DFF3E031D232D0310480D353E10
:102A560084000A128A150A200A168A11C9000A1267
:102A66008A150A200A168A11CA000A128A150A202D
:102A76000A168A11CB000A128A150A200A168A112A
:102A8600CC004C08AB004B08AA004A08A90049082C
:102A9600A8005408AF005308AE005208AD00510814
:102AA600AC000A128A1558210A168A1183120313DA
:102AB6002B08C5002A08C4002908C3002808C2003C
:102AC600A72D3F30AB000030AA000030A90000302F
:102AD600A8005508C60001300310C60DFF3E031DB1
:102AE6006F2D0310460D353E84000A128A150A2002
:102AF6000A168A11C7000A128A150A200A168A11AE
:102B0600C8000A128A150A200A168A11C9000A1272
:102B16008A150A200A168A11CA004A08AF0049080F
:102B2600AE004808AD004708AC000A128A155821C5
:102B36000A168A11831203132B08C5002A08C4003B
:102B46002908C3002808C200080083120313590885
:102B56008039E6005908DE005E07E800D81FB42D6C
:102B6600B52DB62D681468080319BA2DBB2DCB2DCB
:102B7600680A031DBF2DC02DC82D0030D9000030B6
:102B8600D8000030D7000030D600D817D901D32D91
:102B96000030D9000030D8000030D7000030D60011
:102BA6005D088039E700670866060319DB2DDC2D12
:102BB600DD2D66175D08DE005E07E700DC1FE42DED
:102BC600E52DE62D671467080319EA2DEB2DFB2D7D
:102BD600670A031DEF2DF02DF82D0030DD000030C3
:102BE600DC000030DB000030DA00DC17DD01032EEC
:102BF6000030DD000030DC000030DB000030DA00A1
:102C0600680867020318082E092E2F2E661F0C2E41
:102C16000D2E112E8030DE005E08E6066808E900FB
:102C26006708E8006908E7005608E9005A08D60070
:102C36006908DA005708E9005B08D7006908DB0075
:102C46005808E9005C08D8006908DC005908E90062
:102C56005D08D9006908DD00E9016708DE00DF01CB
:102C66005F08E10068085E02E000031CE1036108FA
:102C7600803AFF0080307F02031D432E1A30600227
:102C8600031C462E472E7E2E831203135908580422
:102C960057045604031D502E522E0130532E003079
:102CA600E9000030D9000030D8000030D7000030ED
:102CB600D6006708E800862E691C622E632E6A2EEF
:102CC6006908DE0003105E0C0138E9006C2E031063
:102CD600E90C561C6F2E702E712EE9170130DE009E
:102CE600590DD90CD80CD70CD60CDE0B732E01302F
:102CF600DE005E08E8078312031367086802031CF8
:102D0600852E862E5F2E661B892E8A2ED32E680868
:102D1600031D8E2E8F2E982E0030D9000030D8003D
:102D26000030D7000030D600FF2F5A08D6075B08C0
:102D360003110318013E0319A12ED7075C080311DE
:102D46000318013E0319A82ED8075D0803110318BE
:102D5600013E0319AF2ED907591CB22EB32E872F69
:102D6600691CB62EB72EBE2E6908DE0003105E0C57
:102D76000138E900C02E0310E90C561CC32EC42EE0
:102D8600C52EE9170130DE00590DD90CD80CD70C29
:102D9600D60CDE0BC72E0130DE005E08E807872F53
:102DA6005908803AFF005D08803A7F02031DE52E30
:102DB6005C085802031DE52E5B085702031DE52E2D
:102DC6005A0856020318E82EE92E412FFF30DE007E
:102DD600FF30DF00FF30E000FF30E1005A08E2007C
:102DE6005B08E3005C08E4005D08E5005608E202C3
:102DF6005708031C570F002F012FE3025808031C26
:102E0600580F062F072FE4025908031C590F0C2FE1
:102E16000D2FE5026208DE0763080318630F142FFF
:102E2600152FDF0764080318640F1A2F1B2FE007FE
:102E360065080318650AE1076108D9006008D8002B
:102E46005F08D7005E08D6008030DE005E08E60622
:102E5600E909E90A6908031D312F322F4F2F013086
:102E6600D607003003180130D707003003180130A9
:102E7600D807003003180130D9074F2F5A08D60259
:102E86005B08031C5B0FD7025C08031C5C0FD802AF
:102E96005D08031C5D0FD9025908580457045604EF
:102EA600031D562F572F832F6908031D5B2F5C2F99
:102EB600832F0030D9000030D8000030D700003012
:102EC600D600FF2F0130DE000310D60DD70DD80D2A
:102ED600D90DDE0B672FE91F712F722F732F561432
:102EE600691C762F772F7A2F0314E90D7C2F031098
:102EF600E90D68080319802F812F832F0130E8021E
:102F0600D81F862F872F652FE701E91F8B2F8C2F60
:102F16009A2F69087F390319912F922F952FE70170
:102F2600E70A9A2F561C982F992F9A2F922F6708E7
:102F360003199E2F9F2FD32F0130D6070030031879
:102F46000130D707003003180130D80700300318C6
:102F56000130D907591CB02FB12FD32F5608DE00E8
:102F66005708DF005808E0005908E1000130E20088
:102F7600610DE10CE00CDF0CDE0CE20BBB2F6108EF
:102F8600D9006008D8005F08D7005E08D600680A36
:102F96000319CE2FCF2FD32F0130DE005E08E807AE
:102FA600680A0319D72FD82FDD2F6808031DDC2FD9
:102FB600DD2FEB2F0030D9000030D8000030D700CD
:102FC6000030D6006808031DE92FEA2FEB2FE60133
:102FD600681CEE2FEF2FF12FD817F52F7F30DE006C
:102FE6005E08D8056808DE0003105E0CD900E61FEF
:0A2FF600FD2FFE2FFF2FD917080052
:1033E200F200720883120313880008008312031389
:1033F2000C1FFC29FD29FE290C131E080800750864
:103402007404730472040319072A082A0A2A8030F2
:10341200F506080000300A168A154A220A168A158D
:1034220001300A168A154A220A168A150800F30084
:103432007308F200F20DF20D831203131F087206D5
:10344200C33972069F009F140800F50075080A161A
:103452008A1518220A168A151030F400F40B2F2A46
:1034620000000A168A15F7210A168A150800F300C9
:10347200F2013A30730203183F2A402A482A3030B8
:103482007302031C452A462A482AF201F20A720CE8
:103492000800F50083120313091075080A168A152D
:1034A200F1210A168A158312031309150B30F40051
:1034B2006230F300F30B5B2AF40B5B2A00008312E9
:1034C200031309110800F40083120313091474088A
:1034D2000A168A15F1210A168A1583120313091591
:1034E2001A30F300F30B732A00008312031309113D
:1034F20009101A30F300F30B7C2A00000800F700D1
:103502007703031D852A862A902A76087F3EF800D3
:1035120078080A168A154A220A168A159F2A023044
:103522007706031D952A962A9F2A7608BF3EF80041
:1035320078080A168A154A220A168A150800F60120
:10354200F701721CA52AA62AAC2A7408F6070318EA
:10355200F70A7508F70701300310F40DF50DFF3E69
:10356200031DAD2A01300310F30CF20CFF3E031DC4
:10357200B42A72087304031DBF2AC02AA22A77083C
:10358200F3007608F2000800FA00F601F70172086B
:10359200F400F5017408F8007508F9007A1CD22AC3
:1035A200D32AD92A7808F6070318F70A7908F70701
:1035B20001300310F80DF90DFF3E031DDA2A031046
:1035C200FA0C7A08031DE62AE72ACF2A7708F300C5
:1035D2007608F2000800720873040319F12AF22A2D
:1035E200212BF701F70A002B01300310F20DF30D26
:1035F200FF3E031DF62A0130F6007608F707F31F97
:10360200032B042BF52A73087502031D0A2B72087B
:103612007402031C0D2B0E2B142B7208F402730878
:10362200031CF503F50201300310F30CF20CFF3E0C
:10363200031D152B0130F702031D202B212B042B18
:103642007508F3007408F2000800FA01FB014B2B25
:103652007A087507F8007608F7000318F70AFA1FC8
:10366200332BF7037708F900790883120313FF005D
:10367200780884000A128A1500200A168A150A168A
:103682008A1564220A168A150130FA070318FB0A02
:103692000030FB077A087507F8007608F700031870
:1036A200F70AFA1F552BF7037708F90079088312F6
:1036B2000313FF00780884000A128A1500200A16F4
:1036C2008A15003A031D662B672B292B08008312EB
:1036D2000313A101A201780879040319712B722B3B
:1036E200A92BA301A30A802B01300310F80DF90DB9
:1036F200FF3E031D762B0130A0002008A307F91F0F
:10370200832B842B752B01300310A10DA20DFF3EDC
:10371200031D852B79087B02031D912B78087A0201
:10372200031C942B952B9C2B7808FA027908031C16
:10373200FB03FB02211401300310F90CF80CFF3ECD
:10374200031D9D2B0130A302031DA82BA92B842B43
:103752002208F9002108F8000800003072058312DF
:103762000313A00000307305A10080307405A2008D
:103772007F307505A3002308220421042004031DC1
:10378200C32BC42BCC2B0030F5000030F4000030EA
:10379200F3000030F20000307605A000003077051B
:1037A200A10080307805A2007F307905A3002308AC
:1037B200220421042004031DDF2BE02BE82B003020
:1037C200F9000030F8000030F7000030F600790808
:1037D2007506031DF62B78087406031DF62B770871
:1037E2007306031DF62B760872060319F92BFA2BC2
:1037F200FC2B0310FD2B03140800803083160313E7
:10380200A306270883120313D9008316031326087D
:1038120083120313D800831603132508831203139C
:10382200D70083160313240883120313D6008316CA
:103832000313230883120313DD00831603132208E4
:1038420083120313DC00831603132108831203136C
:10385200DB0083160313200883120313DA000A160F
:103862008A11A8250A168A1583120313590883168A
:103872000313A30083120313580883160313A20031
:1038820083120313570883160313A1008312031331
:10389200560883160313A000080075087404730405
:1038A20072040319552C562C992CFB01FB0A662C29
:1038B2000130FA000310F20DF30DF40DF50DFA0BC1
:1038C2005B2C0130FA007A08FB07F51F692C6A2C81
:1038D200592C75087902031D782C74087802031D8F
:1038E200782C73087702031D782C72087602031C69
:1038F2007B2C7C2C8A2C7208F6027308031C730F33
:10390200F7027408031C740FF8027508031C750F84
:10391200F90201300310F50CF40CF30CF20CFF3E2B
:10392200031D8B2C0130FB02031D982C992C6A2C51
:103932007908F5007808F4007708F3007608F200B9
:103942000800F801F51FA62CA72CAE2CF409F509E6
:10395200F40A0319F50AF801F80AF31FB12CB22C84
:10396200B72CF209F309F20A0319F30A7208730475
:103972000319BC2CBD2CEC2CF701F70ACB2C01301F
:103982000310F20DF30DFF3E031DC12C0130F600B2
:103992007608F707F31FCE2CCF2CC02C73087502C4
:1039A200031DD52C72087402031CD82CD92CDF2CD1
:1039B2007208F4027308031CF503F50201300310C8
:1039C200F30CF20CFF3E031DE02C0130F702031D45
:1039D200EB2CEC2CCF2C78080319F02CF12CF62CC4
:1039E200F409F509F40A0319F50A7508F3007408D5
:1039F200F200080083120313E80068080A168A1509
:103A020026220A168A1583120313E000E1016008D8
:103A1200E6006108E7004330C5008030C400003092
:103A2200C3000030C2004030AB00A030AA0000301A
:103A3200A9000030A8006608F2006708F300003011
:103A4200F31BFF30F400F50001300A168A11102131
:103A52000A168A15750883120313AF007408AE00A4
:103A62007308AD007208AC000A128A1558210A16B2
:103A72008A15831203132B08C9002A08C8002908D3
:103A8200C7002808C6000A168A11CA210A168A1512
:103A9200831203134508E5004408E4004308E300E9
:103AA2004208E2006508DF006408DE006308DD000A
:103AB2006208DC000800003083120313A300003008
:103AC200A2000030A1000030A00075087404730445
:103AD200720403196D2D6E2DBB2DA401A40A7E2D37
:103AE2000130FA000310F20DF30DF40DF50DFA0B8F
:103AF200732D0130FA007A08A407F51F812D822D5B
:103B0200712D0130FA000310A00DA10DA20DA30D1D
:103B1200FA0B842D75087902031D992D7408780219
:103B2200031D992D73087702031D992D72087602E1
:103B3200031C9C2D9D2DAC2D7208F6027308031CEC
:103B4200730FF7027408031C740FF8027508031C44
:103B5200750FF902201401300310F50CF40CF30C6C
:103B6200F20CFF3E031DAD2D0130A402031DBA2D40
:103B7200BB2D822D2308F5002208F4002108F30052
:103B82002008F200080083120313A501A11FCA2D09
:103B9200CB2DD22DA009A109A00A0319A10AA501C2
:103BA200A50AA31FD52DD62DDF2DA209A309A20A8E
:103BB2000319A30A0130F9007908A506A601A70195
:103BC200200821040319E62DE72D1E2EA401A40AC4
:103BD200F52D01300310A00DA10DFF3E031DEB2DAD
:103BE2000130F9007908A407A11FF82DF92DEA2D5B
:103BF20001300310A60DA70DFF3E031DFA2D21086B
:103C02002302031D062E20082202031C092E0A2E5F
:103C1200112E2008A2022108031CA303A3022614CA
:103C220001300310A10CA00CFF3E031D122E013027
:103C3200A402031D1D2E1E2EF92D25080319222E66
:103C4200232E282EA609A709A60A0319A70A2708C0
:103C5200A1002608A0000800031083120313570DC9
:103C6200580DDE005E08031D372E382E412E00301F
:103C7200D8000030D7000030D6000030D500A42E86
:103C82005508D9005608DA005708DB005808DC004E
:103C92001F300310DC0CDB0CDA0CD90CFF3E031DC9
:103CA2004A2E5908DD00D717FF30D505FF30D6055B
:103CB200FF30D7050030D8059630DE02DE1F622EB7
:103CC200632E7D2E5E08803A973E0318692E6A2E77
:103CD2006B2E382E01300310D80CD70CD60CD50C15
:103CE200FF3E031D6C2E0130D9005908DE07031D6B
:103CF2007B2E7C2E6B2E942E20305E02031C822E95
:103D0200832E8F2E382E0130D9000310D50DD60DFB
:103D1200D70DD80DD90B862E0130DE025E08031DA9
:103D2200932E942E842E5D080319982E992EA42E7C
:103D3200D509D609D709D809D50A0319D60A03190C
:103D4200D70A0319D80A0800003072058312031338
:103D5200A00000307305A10080307405A2007F30FE
:103D62007505A3002308220421042004031DBA2E92
:103D7200BB2EC32E0030F5000030F4000030F300FB
:103D82000030F20000307605A00000307705A10077
:103D920080307805A2007F307905A3002308220431
:103DA20021042004031DD62ED72EDF2E0030F90069
:103DB2000030F8000030F7000030F600F51FE22E68
:103DC200E32E072F0030A0000030A1000030A20037
:103DD2008030A3007208A0027308031C730FF22E36
:103DE200F32EA1027408031C740FF82EF92EA202FE
:103DF2007508031C750FFE2EFF2EA3022308F50083
:103E02002208F4002108F3002008F200F91F0A2F0B
:103E12000B2F2F2F0030A0000030A1000030A20095
:103E22008030A3007608A0027708031C770F1A2FB0
:103E32001B2FA1027808031C780F202F212FA2022A
:103E42007908031C790F262F272FA3022308F900D4
:103E52002208F8002108F7002008F6008030F50655
:103E62008030F90679087502031D412F7808740223
:103E7200031D412F77087302031D412F760872023A
:103E82000318442F452F472F0310482F031408000F
:103E9200720883120313A0007308A1007408A20021
:103EA2000310210D220DA8002808031D592F5A2F97
:103EB200632F0030F5000030F4000030F3000030D2
:103EC200F200FF2F7608A0007708A1007808A20070
:103ED2000310210D220DA7002708031D712F722F39
:103EE200732F5A2FF317FF30F205FF30F30500301E
:103EF200F405F717FF30F605FF30F7050030F80537
:103F02000030A6000030A5000030A4000030A3005D
:103F12007F30A80298302707A0002008A802183096
:103F2200A7000130A0000310A30DA40DA50DA60D3E
:103F3200A00B942F78087402031DA52F7708730233
:103F4200031DA52F76087202031CA82FA92FB42FD8
:103F52007608F2027708031C770FF3027808031C35
:103F6200780AF402231401300310F20DF30DF40D5C
:103F7200FF3E031DB52F0130A702031DC12FC22F23
:103F8200922FA81FC52FC62FE02F2808803A973EF0
:103F92000318CC2FCD2FCE2F5A2F01300310A60C91
:103FA200A50CA40CA30CFF3E031DCF2F0130A000D3
:103FB2002008A807031DDE2FDF2FCE2FF72F183082
:103FC2002802031CE52FE62FF22F5A2F0130A00002
:103FD2000310A30DA40DA50DA60DA00BE92F013012
:103FE200A8022808031DF62FF72FE72F2608F50051
:103FF2002508F4002408F3002308F2000800FF3F1C
:06400200FF3FFF3FFF3FFE
:04400E00D620FF3F7A
:00000001FF
