:060000000A128A110C280F
:10000800FE00030EF2000A08F3000A128A150E2EEB
:100018000A128A110F28F701F80183120313EB0162
:1000280083010A128A11702A831203132308803964
:10003800B0002308A8002807B200A21F24282528FA
:1000480026283214320803192A282B283B28320A7A
:10005800031D2F28302838280030A3000030A200C4
:100068000030A1000030A000A217A30143280030EF
:10007800A3000030A2000030A1000030A000270833
:100088008039B1003108300603194B284C284D2817
:1000980030172708A8002807B100A61F542855289C
:1000A80056283114310803195A285B286B28310A5D
:1000B800031D5F28602868280030A7000030A600CC
:1000C8000030A5000030A400A617A701732800304F
:1000D800A7000030A6000030A5000030A4003208B8
:1000E80031020318782879289F28301F7C287D281A
:1000F80081288030A8002808B0063208B3003108EB
:10010800B2003308B1002008B3002408A000330867
:10011800A4002108B3002508A1003308A50022087F
:10012800B3002608A2003308A6002308B300270856
:10013800A3003308A700B3013108A800A9012908C2
:10014800AB0032082802AA00031CAB032B08803A34
:10015800FF0080307F02031DB3281A302A02031CD7
:10016800B628B728EE288312031323082204210493
:100178002004031DC028C2280130C3280030B30062
:100188000030A3000030A2000030A1000030A00021
:100198003108B200F628331CD228D328DA283308CD
:1001A800A8000310280C0138B300DC280310B30C96
:1001B800201CDF28E028E128B3170130A800230D10
:1001C800A30CA20CA10CA00CA80BE3280130A800DA
:1001D8002808B2078312031331083202031CF528DA
:1001E800F628CF28301BF928FA2843293208031D9E
:1001F800FE28FF2808290030A3000030A2000030A4
:10020800A1000030A0006F2A2408A00725080311C8
:100218000318013E03191129A10726080311031821
:10022800013E03191829A207270803110318013EE4
:1002380003191F29A307231C22292329F729331C63
:10024800262927292E293308A8000310280C01384D
:10025800B30030290310B30C201C33293429352965
:10026800B3170130A800230DA30CA20CA10CA00CFD
:10027800A80B37290130A8002808B207F729230856
:10028800803AFF002708803A7F02031D5529260877
:100298002202031D552925082102031D552924087A
:1002A8002002031858295929B129FF30A800FF3026
:1002B800A900FF30AA00FF30AB002408AC002508D5
:1002C800AD002608AE002708AF002008AC022108C0
:1002D800031C210F70297129AD022208031C220F6B
:1002E80076297729AE022308031C230F7C297D2950
:1002F800AF022C08A8072D0803182D0F842985297B
:10030800A9072E0803182E0F8A298B29AA072F0858
:1003180003182F0AAB072B08A3002A08A2002908F4
:10032800A1002808A0008030A8002808B006B3095A
:10033800B30A3308031DA129A229BF290130A00748
:10034800003003180130A107003003180130A2075C
:10035800003003180130A307BF292408A00225088C
:10036800031C250FA1022608031C260FA20227083A
:10037800031C270FA3022308220421042004031DC1
:10038800C629C729F3293308031DCB29CC29F3290A
:100398000030A3000030A2000030A1000030A0000F
:1003A8006F2A0130A8000310A00DA10DA20DA30D06
:1003B800A80BD729B31FE129E229E3292014331C0C
:1003C800E629E729EA290314B30DEC290310B30D34
:1003D80032080319F029F129F3290130B202A21FCA
:1003E800F629F729D529B101B31FFB29FC290A2AC7
:1003F80033087F390319012A022A052AB101B10AF3
:100408000A2A201C082A092A0A2A022A310803195A
:100418000E2A0F2A432A0130A007003003180130A2
:10042800A107003003180130A2070030031801307B
:10043800A307231C202A212A432A2008A8002108D0
:10044800A9002208AA002308AB000130AC002B0D3C
:10045800AB0CAA0CA90CA80CAC0B2B2A2B08A300DC
:100468002A08A2002908A1002808A000320A0319B6
:100478003E2A3F2A432A0130A8002808B207320A38
:100488000319472A482A4D2A3208031D4C2A4D2AA7
:100498005B2A0030A3000030A2000030A100003029
:1004A800A0003208031D592A5A2A5B2AB001321CBF
:1004B8005E2A5F2A612AA217652A7F30A8002808C9
:1004C800A2053208A8000310280CA300B01F6D2A4B
:1004D8006E2A6F2AA3170800CF30F5000030F60007
:1004E8000A128A1502250A128A11831203138C1222
:1004F800831603138C160B178B17831203138501AE
:10050800EA01E901E90A00300A128A15E4250A120B
:100518008A110E300A128A153F250A128A110030F4
:10052800F500F6000A128A1152250A128A110130C2
:10053800F5000030F6000A128A1152250A128A11B3
:100548008316031388018312031388018316031388
:100558008901831203138901831603138601831209
:10056800031386010A128A11A0270A128A110A1295
:100578008A15F5240A128A1183120313A201A20A0A
:1005880001300A128A1577250A128A112D30831232
:100598000313A1008030A2000A128A1576260A12D7
:1005A8008A1183120313A201A20A02300A128A15C1
:1005B80077250A128A113D3083120313A100803077
:1005C800A2000A128A1576260A128A1103308312AB
:1005D8000313E4009730E300E30BF02AE40BF02A5E
:1005E800831203136A080A128A115F260A128A11F3
:1005F800831203135608E6005508E50069080A1235
:100608008A115F260A128A11831203135608E8001A
:100618005508E700A030AC000030AD004930AE000E
:100628006608B0006508AF000A128A11CC230A12C6
:100638008A11903083120313AC000130AD004930A9
:10064800AE006808B0006708AF000A128A11CC2310
:100658000A128A11103083120313AC000130AD0066
:100668004930AE006B08E300E4016308AF0064089A
:10067800B0000A128A11CC230A128A1183120313BA
:10068800A201A20A02300A128A1577250A128A11D3
:10069800053083120313E300E30B502B532B0B306D
:1006A80083120313A1008030A2000A128A1576264D
:1006B8000A128A1183120313A201A20A02300A1233
:1006C8008A1577250A128A11053083120313E3006D
:1006D800E30B6C2B6F2BA03083120313A1000030A7
:1006E800A2000A128A1576260A128A110730831286
:1006F8000313A20002300A128A1577250A128A11FA
:10070800053083120313E300E30B882B8B2B903007
:1007180083120313A1000130A2000A128A1576265B
:100728000A128A110D3083120313A20002300A1232
:100738008A1577250A128A11053083120313E300FC
:10074800E30BA42BA72B103083120313A100013055
:10075800A2000A128A1576260A128A111A30831202
:100768000313E400F730E300E30BB82BE40BB82BDA
:10077800BD2B831203136A080A128A1529250A1247
:100788008A11831203138600EA2A0A128A110C2896
:100798002F3083120313B500812C25303906031935
:1007A800D62BD72BE52B2C08840083172D1C8313FD
:1007B800390880000130AC070318AD0A0030AD07D6
:1007C800812CB401EC2BC030B1003108B404062CE4
:1007D8000130AE07FF302E0784000A128A150A205E
:1007E8000A128A11B900B100B2013208003A03199D
:1007F800FE2B812C3108003A0319912C753A031904
:10080800E72B812C3508840083130008B600840A7E
:100818000008B7000230B1003108B507B901B90ABC
:100828003908B1003107013E84000A128A150A20EE
:100838000A128A11B2000A128A150A200A128A11AB
:10084800B30033083702031D2B2C32083602031875
:100858002E2C2F2C302C3A2C0130B1003108B9073E
:1008680005303906031D392C3A2C142C3908B800E8
:10087800782C0A30A7000030A8003808B1003107EA
:10088800013E84000A128A150A200A128A11A00061
:100898000A128A150A200A128A11A1003708A30031
:1008A8003608A2000A128A15BC260A128A11831277
:1008B80003132108AA002008A9000A128A153A265B
:1008C8000A128A11831203132708303EB9002C0834
:1008D800840083172D1C8313390880000130AC076E
:1008E8000318AD0A0030AD07FF30B1003108B80772
:1008F800380A031D802C812C3D2C0130AE07FF30B7
:100908002E0784000A128A150A200A128A11B900D1
:100918003908031D902C912CD12B2C0884008317A7
:100928002D1C83138001080083120313B5003508BA
:1009380003199F2CA02CB42CB01FA32CA42CB42CCE
:100948002D09B7002E09B8002F09B9003009BA00DF
:10095800B70A0319B80A0319B90A0319BA0ABC2C49
:100968003008BA002F08B9002E08B8002D08B700C3
:1009780030082F042E042D04031DC32CC42CCD2CA9
:100988000030B0000030AF000030AE000030AD00E5
:10099800512D9630B600DD2C0130B1003108B60774
:1009A80001300310BA0CB90CB80CB70CFF3E031D8C
:1009B800D52CFE303A05031DE22CE32CD02CFF2C5D
:1009C8000130B1003108B6070130B707003003180D
:1009D8000130B807003003180130B9070030031898
:1009E8000130BA0701300310BA0CB90CB80CB70CB7
:1009F800FF3E031DF72CFF303A05031D042D052D7E
:100A0800E42C112D0130B6020130B1000310B70DEE
:100A1800B80DB90DBA0DB10B0A2DB91B142D152D32
:100A28001B2D0230360203181A2D1B2D062D3618E1
:100A38001E2D1F2D272DFF30B705FF30B8057F303D
:100A4800B905FF30BA050310B60C3608B100B2017B
:100A5800B301B40118300310B10DB20DB30DB40DCC
:100A6800FF3E031D2F2D3108B7043208B8043308A0
:100A7800B9043408BA0435080319432D442D492D07
:100A8800B01F472D482D492DBA173A08B00039082C
:100A9800AF003808AE003708AD000800B52D831642
:100AA80003170814831603130514E62D831603177A
:100AB8008814831603138514E62D83160317081567
:100AC800831603130515E62D831603178815831659
:100AD80003138515E62D83160317081683160313CB
:100AE8008516E62D83160317881683160313091433
:100AF800E62D831603170817831603138914E62DAA
:100B0800831603178817831603130915E62D831612
:100B180003170914831603130615E62D8316031706
:100B28008914831603138615E62D831603170915F2
:100B3800831603138614E62D831603178915831667
:100B480003130616E62D83160317091683160313D7
:100B58000614E62D831603178916831603138616C3
:100B6800E62D7608003A0319BA2DE62D7508003AE5
:100B78000319532D013A03195A2D033A0319612D0C
:100B8800013A0319682D073A03196F2D013A031921
:100B9800762D033A03197D2D013A0319842D0F3A56
:100BA80003198B2D013A0319922D033A0319992D34
:100BB800013A0319A02D073A0319A72D013A031981
:100BC800AE2DE62D0800031083120313220D230D0A
:100BD800F6007608031DF12DF22DFB2D0030A30041
:100BE8000030A2000030A1000030A0005E2E2008D6
:100BF800A4002108A5002208A6002308A7001F308A
:100C08000310A70CA60CA50CA40CFF3E031D042E74
:100C18002408F500A217FF30A005FF30A105FF301A
:100C2800A2050030A3059630F602F61F1C2E1D2ED5
:100C3800372E7608803A973E0318232E242E252E29
:100C4800F22D01300310A30CA20CA10CA00CFF3E46
:100C5800031D262E0130A4002408F607031D352E97
:100C6800362E252E4E2E20307602031C3C2E3D2E8D
:100C7800492EF22D0130A4000310A00DA10DA20DE4
:100C8800A30DA40B402E0130F6027608031D4D2E4D
:100C98004E2E3E2E75080319522E532E5E2EA00995
:100CA800A109A209A309A00A0319A10A0319A20A02
:100CB8000319A30A080083120313E10061080A124A
:100CC8008A1529250A128A1183120313E200883033
:100CD800A2001330A3006208D700D8015708A0006B
:100CE8005808A1000A128A15BD250A128A11831212
:100CF80003132108A7002008A600FF30A400003035
:100D0800A5000A128A11D0260A128A118312031327
:100D18002408AD002508AE000030AE1BFF30AF0040
:100D2800B00001300A128A1198240A128A1183121B
:100D380003133008DC002F08DB002E08DA002D082A
:100D4800D9005C08D0005B08CF005A08CE005908CB
:100D5800CD000A128A1139270A128A118312031345
:100D68005008E0004F08DF004E08DE004D08DD00A7
:100D78006008A3005F08A2005E08A1005D08A0004B
:100D88000A128A11E7250A128A118312031321080D
:100D9800D6002008D500080083120313AA01A51F56
:100DA800D62ED72EDE2EA409A509A40A0319A50A52
:100DB800AA01AA0AA71FE12EE22EEB2EA609A7096F
:100DC800A60A0319A70A0130A8002808AA06AB0139
:100DD800AC01240825040319F22EF32E2A2FA901A9
:100DE800A90A012F01300310A40DA50DFF3E031D14
:100DF800F72E0130A8002808A907A51F042F052FE2
:100E0800F62E01300310AB0DAC0DFF3E031D062F6F
:100E180025082702031D122F24082602031C152F5C
:100E2800162F1D2F2408A6022508031CA703A702B6
:100E38002B1401300310A50CA40CFF3E031D1E2F1C
:100E48000130A902031D292F2A2F052F2A0803196B
:100E58002E2F2F2F342FAB09AC09AB0A0319AC0A7C
:100E68002C08A5002B08A4000800831203135008BF
:100E7800BE004F08BD004E08BC004D08BB000A125A
:100E88008A15A6270A128A11831203133E08C8007E
:100E98003D08C7003C08C6003B08C5005008CC0008
:100EA8004F08CB004E08CA004D08C9000A128A151F
:100EB80099250A128A11831203134808D400470897
:100EC800D3004608D2004508D1005408A3005308AF
:100ED800A2005208A1005108A0005008A7004F081E
:100EE800A6004E08A5004D08A4000A128A11182071
:100EF8000A128A11831203132308D0002208CF0094
:100F08002108CE002008CD005008BE004F08BD00C3
:100F18004E08BC004D08BB000A128A15A6270A1203
:100F28008A11831203133E08D0003D08CF003C0805
:100F3800CE003B08CD000800023083120313A40042
:100F48000730A3005230A200A20BA82FA30BA82F92
:100F5800A40BA82F000030300A128A153F250A1268
:100F68008A110D3083120313A300FB30A200A20BD9
:100F7800BB2FA30BBB2F30300A128A153F250A124C
:100F88008A11033083120313A3009730A200A20B27
:100F9800CB2FA30BCB2F30300A128A153F250A120C
:100FA8008A11033083120313A3009730A200A20B07
:100FB800DB2FA30BDB2F38300A128A153F250A12C4
:100FC8008A1108300A128A153F250A128A1101303F
:100FD8000A128A153F250A128A1106300A128A1542
:100FE8003F250A128A110C300A128A153F250A1267
:040FF8008A11080052
:10100000FF1B0A2883137F1883170008840A03191B
:10101000FF0A080008308A000408840A82070034A6
:10102000013400340A34003464340034E8340334C6
:101030001034273420342034203420342034203419
:101040002034203420342034203420342034203400
:1010500020342034203420342034203420342034F0
:1010600020342034203420342034203420342034E0
:1010700020342034203400342034533431342034AC
:10108000203420342034533432342034203420347B
:10109000203453343334003430342E34303430344C
:1010A0005634203430342E34303430345634003416
:0610B00025347534003404
:1019BA00F5007508831203138800080083120313C5
:1019CA008C1EE82CE92CE32C8C121A0808008312CE
:1019DA0003130C1FF12CF22CF32C0C131E08080015
:1019EA0000300A128A153F250A128A1501300A1296
:1019FA008A153F250A128A1508008316031318123E
:101A0A00181583160317871575088316031399008B
:101A1A0076089A00831203139817181318160800E9
:101A2A00F6007608F500F50DF50D831203131F086D
:101A3A007506C33975069F002130F500F50B232D75
:101A4A00831203139F14080083120313A1002108B1
:101A5A000A128A1515250A128A150F3083120313E2
:101A6A00A000A00B362D392D0A128A15EC240A1271
:101A7A008A150800F60083120313091076080A1261
:101A8A008A15DD240A128A158312031309150B30ED
:101A9A0083120313A1006130A000A00B522DA10BE9
:101AAA00522D572D831203130911080083120313B1
:101ABA00A000091420080A128A15DD240A128A15C0
:101ACA008312031309151A30F600F60B6A2D00006B
:101ADA0083120313091109101A30F600F60B732D3D
:101AEA000000080083120313A3002303031D7E2DA5
:101AFA007F2D892D22087F3EA40024080A128A1508
:101B0A003F250A128A15982D02302306031D8E2DB1
:101B1A008F2D982D2208BF3EA40024080A128A1588
:101B2A003F250A128A150800803083120313C8065B
:101B3A004C08A3004B08A2004A08A1004908A000CB
:101B4A004808A7004708A6004608A5004508A400BB
:101B5A000A128A1118200A128A15831203132308FB
:101B6A00C8002208C7002108C6002008C5000800CE
:101B7A00F501F60183120313201CC42DC52DCB2DAC
:101B8A002208F5070318F60A2308F607013003109E
:101B9A00A20DA30DFF3E031DCC2D01300310A10C95
:101BAA00A00CFF3E031DD32D20082104031DDE2DAA
:101BBA00DF2DBF2D7608A1007508A0000800F600E9
:101BCA007603031DE92DEA2DF02D8B170B178316CB
:101BDA0003130C13F32D831603130C139F131F12F5
:101BEA009F128316031788018901831203131F08A2
:101BFA003F3940389F00C3309F052130F500F50B6F
:101C0A00042E831203131F142130F500F50B0B2E3B
:101C1A0008000A128A15E3240A128A15F4002B30E6
:101C2A007406031D192E1A2E202E0130F00070089A
:101C3A0083120313EB072D307406031D252E262E5F
:101C4A002A2E013083120313EB021A30F100F83006
:101C5A00F000F00B2E2EF10B2E2E000073088A00D6
:101C6A00720E8300FE0E7E0E0900831203132708EC
:101C7A0028040319412E422E712EAB01AB0A502EB5
:101C8A0001300310A70DA80DFF3E031D462E01309B
:101C9A00F6007608AB07A81F532E542E452E2808A7
:101CAA002A02031D5A2E27082902031C5D2E5E2EC6
:101CBA00642E2708A9022808031CAA03AA020130D5
:101CCA000310A80CA70CFF3E031D652E0130AB02C2
:101CDA00031D702E712E542E2A08A8002908A70069
:101CEA00080083120313A601A7019F2E26082107C5
:101CFA00A4002208A3000318A30AA61F852EA30383
:101D0A00831203132308A5002508FF002408840072
:101D1A000A128A1500200A128A150A128A155B25E8
:101D2A000A128A15013083120313A6070318A70A99
:101D3A000030A70726082107A4002208A3000318D9
:101D4A00A30AA61FA92EA303831203132308A5001F
:101D5A002508FF00240884000A128A1500200A12A6
:101D6A008A15003A031DBA2EBB2E7B2E0800831259
:101D7A000313A501A601200821040319C52EC62EA6
:101D8A00FD2EA401A40AD42E01300310A00DA10D2A
:101D9A00FF3E031DCA2E0130F5007508A407A11FD6
:101DAA00D72ED82EC92E01300310A50DA60DFF3E41
:101DBA00031DD92E21082302031DE52E2008220225
:101DCA00031CE82EE92EF02E2008A2022108031C8B
:101DDA00A303A302251401300310A10CA00CFF3E9B
:101DEA00031DF12E0130A402031DFC2EFD2ED82E58
:101DFA002608A1002508A00008000030831203135A
:101E0A002005A80000302105A90080302205AA007B
:101E1A007F302305AB002B082A0429042804031D5C
:101E2A00172F182F202F0030A3000030A2000030F7
:101E3A00A1000030A00000302405A80000302505CC
:101E4A00A90080302605AA007F302705AB002B08A1
:101E5A002A0429042804031D332F342F3C2F003071
:101E6A00A7000030A6000030A5000030A400270813
:101E7A002306031D4A2F26082206031D4A2F25087A
:101E8A002106031D4A2F2408200603194D2F4E2F21
:101E9A00502F0310512F03140800831203132F0825
:101EAA00A3002E08A2002D08A1002C08A0000030D3
:101EBA00A7000030A6000030A5000030A4000A12D6
:101ECA008A1502270A128A15031C6C2F6D2F762F8A
:101EDA00831203133008840083138001840A80016B
:101EEA00A52F831203132F087F39F500F60103107B
:101EFA00F50DF60D30088400750883138000840AF6
:101F0A00760880002E0D2E0D0139F500F6013008F5
:101F1A00840075088004840A7608800430088400E6
:101F2A0082308007840F00080318000AFF00FF3080
:101F3A007F07800084032F0880393F38AF00AE1333
:101F4A000800831203133E08AF003D08AE003C08A8
:101F5A00AD003B08AC004330B0000A128A15522784
:101F6A000A128A1583120313C41FBC2FBD2FC62F52
:101F7A000030BE000030BD000030BC000030BB00A5
:101F8A00FF2F003044021D3003194302031CCE2FD9
:101F9A00CF2FD02FFF2F3E08A3003D08A2003C08F8
:101FAA00A1003B08A0000A128A11E7250A128A1525
:101FBA00831203132308B0002208AF002108AE00E1
:101FCA002008AD0001300A128A1198240A128A15D3
:101FDA00831203133008C2002F08C1002E08C00064
:101FEA002D08BF004208BE004108BD004008BC00E1
:061FFA003F08BB000800D7
:08400000FF3FFF3FFF3FFF3FC0
:04400E00D620FF3F7A
:00000001FF
